{
  "contractName": "CompoundWallet",
  "abi": [
    {
      "inputs": [],
      "stateMutability": "payable",
      "type": "constructor",
      "payable": true
    },
    {
      "anonymous": false,
      "inputs": [
        {
          "indexed": false,
          "internalType": "string",
          "name": "",
          "type": "string"
        },
        {
          "indexed": false,
          "internalType": "uint256",
          "name": "",
          "type": "uint256"
        }
      ],
      "name": "WalletLog",
      "type": "event"
    },
    {
      "inputs": [
        {
          "internalType": "address payable",
          "name": "_cEtherContract",
          "type": "address"
        },
        {
          "internalType": "uint256",
          "name": "_amount",
          "type": "uint256"
        }
      ],
      "name": "supplyEthToCompound",
      "outputs": [
        {
          "internalType": "bool",
          "name": "",
          "type": "bool"
        }
      ],
      "stateMutability": "payable",
      "type": "function",
      "payable": true
    },
    {
      "inputs": [
        {
          "internalType": "address",
          "name": "_cEtherContract",
          "type": "address"
        },
        {
          "internalType": "uint256",
          "name": "amount",
          "type": "uint256"
        }
      ],
      "name": "redeemCEth",
      "outputs": [
        {
          "internalType": "bool",
          "name": "",
          "type": "bool"
        }
      ],
      "stateMutability": "nonpayable",
      "type": "function"
    }
  ],
  "bytecode": "0x60806040526104c6806100136000396000f3fe6080604052600436106100295760003560e01c806325c8764e1461002e578063e668190014610094575b600080fd5b61007a6004803603604081101561004457600080fd5b81019080803573ffffffffffffffffffffffffffffffffffffffff16906020019092919080359060200190929190505050610107565b604051808215151515815260200191505060405180910390f35b3480156100a057600080fd5b506100ed600480360360408110156100b757600080fd5b81019080803573ffffffffffffffffffffffffffffffffffffffff16906020019092919080359060200190929190505050610352565b604051808215151515815260200191505060405180910390f35b60008083905060008173ffffffffffffffffffffffffffffffffffffffff1663bd6d894d6040518163ffffffff1660e01b8152600401602060405180830381600087803b15801561015757600080fd5b505af115801561016b573d6000803e3d6000fd5b505050506040513d602081101561018157600080fd5b810190808051906020019092919050505090507fd0c55d35e13dcf688185029be63a7caa6fa1f0a0d7e3c4901b7405a2b9fac5638160405180806020018381526020018281038252602381526020018061046e602391396040019250505060405180910390a160008273ffffffffffffffffffffffffffffffffffffffff1663ae9d70b06040518163ffffffff1660e01b8152600401602060405180830381600087803b15801561023157600080fd5b505af1158015610245573d6000803e3d6000fd5b505050506040513d602081101561025b57600080fd5b810190808051906020019092919050505090507fd0c55d35e13dcf688185029be63a7caa6fa1f0a0d7e3c4901b7405a2b9fac563816040518080602001838152602001828103825260208152602001807f537570706c7920526174653a20287363616c65642075702062792031653138298152506020019250505060405180910390a18273ffffffffffffffffffffffffffffffffffffffff16631249c58b866203d090906040518363ffffffff1660e01b81526004016000604051808303818589803b15801561032b57600080fd5b5088f115801561033f573d6000803e3d6000fd5b5050505050506001935050505092915050565b60008083905060008173ffffffffffffffffffffffffffffffffffffffff1663db006a75856040518263ffffffff1660e01b815260040180828152602001915050602060405180830381600087803b1580156103ad57600080fd5b505af11580156103c1573d6000803e3d6000fd5b505050506040513d60208110156103d757600080fd5b810190808051906020019092919050505090507fd0c55d35e13dcf688185029be63a7caa6fa1f0a0d7e3c4901b7405a2b9fac5638160405180806020018381526020018281038252602481526020018061044a602491396040019250505060405180910390a16001925050509291505056fe49662074686973206973206e6f7420302c2074686572652077617320616e206572726f7245786368616e6765205261746520287363616c65642075702062792031653138293a20a2646970667358221220f37321d160129eba3e43da2563a4ce441c072aba89f855f9f1033d3c2199ba2d64736f6c63430006000033",
  "source": "pragma solidity >=0.4.16 <0.9.0;\n\ninterface CEth {\n    function mint() external payable;\n\n    function exchangeRateCurrent() external returns (uint256);\n\n    function supplyRatePerBlock() external returns (uint256);\n\n    function redeem(uint) external returns (uint);\n\n    function redeemUnderlying(uint) external returns (uint);\n}\n\n\ncontract CompoundWallet {\n  event WalletLog(string, uint256);\n\n  constructor() public payable { }\n\n  function supplyEthToCompound(address payable _cEtherContract, uint256 _amount) public payable returns (bool) {\n    CEth cToken = CEth(_cEtherContract);\n\n    uint256 exchangeRateMantissa = cToken.exchangeRateCurrent();\n    emit WalletLog(\"Exchange Rate (scaled up by 1e18): \", exchangeRateMantissa);\n\n    uint256 supplyRateMantissa = cToken.supplyRatePerBlock();\n    emit WalletLog(\"Supply Rate: (scaled up by 1e18)\", supplyRateMantissa);\n\n    cToken.mint.value(_amount).gas(250000)();\n    return true;\n  }\n\n  function redeemCEth(address _cEtherContract, uint256 amount) public returns (bool) {\n    CEth cToken = CEth(_cEtherContract);\n\n    uint256 redeemResult = cToken.redeem(amount);\n\n    emit WalletLog(\"If this is not 0, there was an error\", redeemResult);\n\n    return true;\n  }\n\n}\n",
  "sourcePath": "/Users/osamamiro/defi/sern/sern/contracts/CompoundWallet.sol",
  "compiler": {
    "name": "solc",
    "version": "0.6.0+commit.26b70077.Emscripten.clang"
  },
  "schemaVersion": "3.2.0",
  "updatedAt": "2021-02-24T04:54:59.207Z",
  "networkType": "ethereum",
  "devdoc": {
    "methods": {}
  },
  "userdoc": {
    "methods": {}
  }
}