{
  "contractName": "CompoundWallet",
  "abi": [
    {
      "inputs": [],
      "stateMutability": "payable",
      "type": "constructor",
      "payable": true
    },
    {
      "anonymous": false,
      "inputs": [
        {
          "indexed": false,
          "internalType": "string",
          "name": "",
          "type": "string"
        },
        {
          "indexed": false,
          "internalType": "uint256",
          "name": "",
          "type": "uint256"
        }
      ],
      "name": "WalletLog",
      "type": "event"
    },
    {
      "inputs": [
        {
          "internalType": "address payable",
          "name": "_cEtherContract",
          "type": "address"
        }
      ],
      "name": "supplyEthToCompound",
      "outputs": [
        {
          "internalType": "bool",
          "name": "",
          "type": "bool"
        }
      ],
      "stateMutability": "payable",
      "type": "function",
      "payable": true
    },
    {
      "inputs": [
        {
          "internalType": "address",
          "name": "_cEtherContract",
          "type": "address"
        },
        {
          "internalType": "uint256",
          "name": "amount",
          "type": "uint256"
        }
      ],
      "name": "redeemCEth",
      "outputs": [
        {
          "internalType": "bool",
          "name": "",
          "type": "bool"
        }
      ],
      "stateMutability": "nonpayable",
      "type": "function"
    }
  ],
  "bytecode": "0x6080604052610548806100136000396000f3fe608060405260043610610046576000357c010000000000000000000000000000000000000000000000000000000090048063a82ffd881461004b578063e6681900146100a7575b600080fd5b61008d6004803603602081101561006157600080fd5b81019080803573ffffffffffffffffffffffffffffffffffffffff16906020019092919050505061011a565b604051808215151515815260200191505060405180910390f35b3480156100b357600080fd5b50610100600480360360408110156100ca57600080fd5b81019080803573ffffffffffffffffffffffffffffffffffffffff169060200190929190803590602001909291905050506103b8565b604051808215151515815260200191505060405180910390f35b60008082905060008173ffffffffffffffffffffffffffffffffffffffff1663bd6d894d6040518163ffffffff167c0100000000000000000000000000000000000000000000000000000000028152600401602060405180830381600087803b15801561018657600080fd5b505af115801561019a573d6000803e3d6000fd5b505050506040513d60208110156101b057600080fd5b810190808051906020019092919050505090507fd0c55d35e13dcf688185029be63a7caa6fa1f0a0d7e3c4901b7405a2b9fac563816040518080602001838152602001828103825260238152602001806104f0602391396040019250505060405180910390a160008273ffffffffffffffffffffffffffffffffffffffff1663ae9d70b06040518163ffffffff167c0100000000000000000000000000000000000000000000000000000000028152600401602060405180830381600087803b15801561027c57600080fd5b505af1158015610290573d6000803e3d6000fd5b505050506040513d60208110156102a657600080fd5b810190808051906020019092919050505090507fd0c55d35e13dcf688185029be63a7caa6fa1f0a0d7e3c4901b7405a2b9fac563816040518080602001838152602001828103825260208152602001807f537570706c7920526174653a20287363616c65642075702062792031653138298152506020019250505060405180910390a18273ffffffffffffffffffffffffffffffffffffffff16631249c58b346203d090906040518363ffffffff167c01000000000000000000000000000000000000000000000000000000000281526004016000604051808303818589803b15801561039257600080fd5b5088f11580156103a6573d6000803e3d6000fd5b50505050505060019350505050919050565b60008083905060008173ffffffffffffffffffffffffffffffffffffffff1663db006a75856040518263ffffffff167c010000000000000000000000000000000000000000000000000000000002815260040180828152602001915050602060405180830381600087803b15801561042f57600080fd5b505af1158015610443573d6000803e3d6000fd5b505050506040513d602081101561045957600080fd5b810190808051906020019092919050505090507fd0c55d35e13dcf688185029be63a7caa6fa1f0a0d7e3c4901b7405a2b9fac563816040518080602001838152602001828103825260248152602001806104cc602491396040019250505060405180910390a16001925050509291505056fe49662074686973206973206e6f7420302c2074686572652077617320616e206572726f7245786368616e6765205261746520287363616c65642075702062792031653138293a20a2646970667358221220a09dc8c86e93d8a7bf00d98cab70a3282cb5784eb4eada5ca1dd863ac1361ab364736f6c63430006000033",
  "source": "pragma solidity ^0.6.0;\n\ninterface CEth {\n    function mint() external payable;\n\n    function exchangeRateCurrent() external returns (uint256);\n\n    function supplyRatePerBlock() external returns (uint256);\n\n    function redeem(uint) external returns (uint);\n\n    function redeemUnderlying(uint) external returns (uint);\n}\n\n\ncontract CompoundWallet {\n  event WalletLog(string, uint256);\n\n  constructor() public payable { }\n\n  function supplyEthToCompound(address payable _cEtherContract) public payable returns (bool) {\n    CEth cToken = CEth(_cEtherContract);\n\n    uint256 exchangeRateMantissa = cToken.exchangeRateCurrent();\n    emit WalletLog(\"Exchange Rate (scaled up by 1e18): \", exchangeRateMantissa);\n\n    uint256 supplyRateMantissa = cToken.supplyRatePerBlock();\n    emit WalletLog(\"Supply Rate: (scaled up by 1e18)\", supplyRateMantissa);\n\n    cToken.mint.value(msg.value).gas(250000)();\n    return true;\n  }\n\n  function redeemCEth(address _cEtherContract, uint256 amount) public returns (bool) {\n    CEth cToken = CEth(_cEtherContract);\n\n    uint256 redeemResult = cToken.redeem(amount);\n\n    emit WalletLog(\"If this is not 0, there was an error\", redeemResult);\n\n    return true;\n  }\n\n}\n",
  "sourcePath": "/Users/osamamiro/defi/sern/sern/contracts/CompoundWallet.sol",
  "compiler": {
    "name": "solc",
    "version": "0.6.0+commit.26b70077.Emscripten.clang"
  },
  "schemaVersion": "3.2.0",
  "updatedAt": "2021-02-11T04:01:39.992Z",
  "networkType": "ethereum",
  "devdoc": {
    "methods": {}
  },
  "userdoc": {
    "methods": {}
  }
}