{
  "contractName": "CompoundWallet",
  "abi": [
    {
      "inputs": [],
      "stateMutability": "payable",
      "type": "constructor",
      "payable": true
    },
    {
      "anonymous": false,
      "inputs": [
        {
          "indexed": false,
          "internalType": "string",
          "name": "",
          "type": "string"
        },
        {
          "indexed": false,
          "internalType": "uint256",
          "name": "",
          "type": "uint256"
        }
      ],
      "name": "WalletLog",
      "type": "event"
    },
    {
      "stateMutability": "payable",
      "type": "fallback",
      "payable": true
    },
    {
      "inputs": [
        {
          "internalType": "address payable",
          "name": "_cEtherContract",
          "type": "address"
        },
        {
          "internalType": "uint256",
          "name": "_amount",
          "type": "uint256"
        }
      ],
      "name": "supplyEthToCompound",
      "outputs": [
        {
          "internalType": "bool",
          "name": "",
          "type": "bool"
        }
      ],
      "stateMutability": "payable",
      "type": "function",
      "payable": true
    },
    {
      "inputs": [
        {
          "internalType": "address",
          "name": "_cEtherContract",
          "type": "address"
        },
        {
          "internalType": "address",
          "name": "_fundAddress",
          "type": "address"
        }
      ],
      "name": "redeemCEth",
      "outputs": [
        {
          "internalType": "bool",
          "name": "",
          "type": "bool"
        }
      ],
      "stateMutability": "nonpayable",
      "type": "function"
    }
  ],
  "bytecode": "0x608060405261060d806100136000396000f3fe60806040526004361061002d5760003560e01c806325c8764e146100305780633d024147146100965761002e565b5b005b61007c6004803603604081101561004657600080fd5b81019080803573ffffffffffffffffffffffffffffffffffffffff1690602001909291908035906020019092919050505061011f565b604051808215151515815260200191505060405180910390f35b3480156100a257600080fd5b50610105600480360360408110156100b957600080fd5b81019080803573ffffffffffffffffffffffffffffffffffffffff169060200190929190803573ffffffffffffffffffffffffffffffffffffffff16906020019092919050505061036a565b604051808215151515815260200191505060405180910390f35b60008083905060008173ffffffffffffffffffffffffffffffffffffffff1663bd6d894d6040518163ffffffff1660e01b8152600401602060405180830381600087803b15801561016f57600080fd5b505af1158015610183573d6000803e3d6000fd5b505050506040513d602081101561019957600080fd5b810190808051906020019092919050505090507fd0c55d35e13dcf688185029be63a7caa6fa1f0a0d7e3c4901b7405a2b9fac563816040518080602001838152602001828103825260238152602001806105b5602391396040019250505060405180910390a160008273ffffffffffffffffffffffffffffffffffffffff1663ae9d70b06040518163ffffffff1660e01b8152600401602060405180830381600087803b15801561024957600080fd5b505af115801561025d573d6000803e3d6000fd5b505050506040513d602081101561027357600080fd5b810190808051906020019092919050505090507fd0c55d35e13dcf688185029be63a7caa6fa1f0a0d7e3c4901b7405a2b9fac563816040518080602001838152602001828103825260208152602001807f537570706c7920526174653a20287363616c65642075702062792031653138298152506020019250505060405180910390a18273ffffffffffffffffffffffffffffffffffffffff16631249c58b866203d090906040518363ffffffff1660e01b81526004016000604051808303818589803b15801561034357600080fd5b5088f1158015610357573d6000803e3d6000fd5b5050505050506001935050505092915050565b60008083905060008173ffffffffffffffffffffffffffffffffffffffff16633af9e669856040518263ffffffff1660e01b8152600401808273ffffffffffffffffffffffffffffffffffffffff1673ffffffffffffffffffffffffffffffffffffffff168152602001915050602060405180830381600087803b1580156103f157600080fd5b505af1158015610405573d6000803e3d6000fd5b505050506040513d602081101561041b57600080fd5b8101908080519060200190929190505050905060008273ffffffffffffffffffffffffffffffffffffffff1663852a12e3836040518263ffffffff1660e01b815260040180828152602001915050602060405180830381600087803b15801561048357600080fd5b505af1158015610497573d6000803e3d6000fd5b505050506040513d60208110156104ad57600080fd5b810190808051906020019092919050505090507fd0c55d35e13dcf688185029be63a7caa6fa1f0a0d7e3c4901b7405a2b9fac5638260405180806020018381526020018281038252600f8152602001807f746f6b656e73417474656d7074656400000000000000000000000000000000008152506020019250505060405180910390a17fd0c55d35e13dcf688185029be63a7caa6fa1f0a0d7e3c4901b7405a2b9fac56381604051808060200183815260200182810382526024815260200180610591602491396040019250505060405180910390a1600193505050509291505056fe49662074686973206973206e6f7420302c2074686572652077617320616e206572726f7245786368616e6765205261746520287363616c65642075702062792031653138293a20a2646970667358221220202f2105d92eee6d505e0b9f191bc4d08fbfaab94fb4305d0138b4da5cd60f6064736f6c63430006000033",
  "source": "pragma solidity >=0.4.16 <0.9.0;\n\ninterface CEth {\n    function mint() external payable;\n\n    function exchangeRateCurrent() external returns (uint256);\n\n    function supplyRatePerBlock() external returns (uint256);\n\n    function redeem(uint) external returns (uint);\n\n    function redeemUnderlying(uint) external returns (uint);\n\n    function balanceOfUnderlying(address) external returns (uint);\n}\n\n\ncontract CompoundWallet {\n  event WalletLog(string, uint256);\n\n  constructor() public payable { }\n\n  function supplyEthToCompound(address payable _cEtherContract, uint256 _amount) public payable returns (bool) {\n    CEth cToken = CEth(_cEtherContract);\n\n    uint256 exchangeRateMantissa = cToken.exchangeRateCurrent();\n    emit WalletLog(\"Exchange Rate (scaled up by 1e18): \", exchangeRateMantissa);\n\n    uint256 supplyRateMantissa = cToken.supplyRatePerBlock();\n    emit WalletLog(\"Supply Rate: (scaled up by 1e18)\", supplyRateMantissa);\n\n    cToken.mint.value(_amount).gas(250000)();\n    return true;\n  }\n  // convert back to eth from cToken\n  function redeemCEth(address _cEtherContract, address _fundAddress) public returns (bool) {\n    CEth cToken = CEth(_cEtherContract);\n    uint256 tokens = cToken.balanceOfUnderlying(_fundAddress);\n\n    uint256 redeemResult = cToken.redeemUnderlying(tokens);\n\n    emit WalletLog(\"tokensAttempted\", tokens);\n    emit WalletLog(\"If this is not 0, there was an error\", redeemResult);\n\n    return true;\n  }\n\n  fallback() external payable {}\n\n}\n",
  "sourcePath": "/Users/osamamiro/defi/sern/sern/contracts/CompoundWallet.sol",
  "compiler": {
    "name": "solc",
    "version": "0.6.0+commit.26b70077.Emscripten.clang"
  },
  "schemaVersion": "3.2.0",
  "updatedAt": "2021-02-25T03:43:45.994Z",
  "networkType": "ethereum",
  "devdoc": {
    "methods": {}
  },
  "userdoc": {
    "methods": {}
  }
}