{
  "contractName": "CompoundWallet",
  "abi": [
    {
      "inputs": [],
      "stateMutability": "payable",
      "type": "constructor",
      "payable": true
    },
    {
      "anonymous": false,
      "inputs": [
        {
          "indexed": false,
          "internalType": "string",
          "name": "",
          "type": "string"
        },
        {
          "indexed": false,
          "internalType": "uint256",
          "name": "",
          "type": "uint256"
        }
      ],
      "name": "WalletLog",
      "type": "event"
    },
    {
      "inputs": [
        {
          "internalType": "address payable",
          "name": "_cEtherContract",
          "type": "address"
        },
        {
          "internalType": "uint256",
          "name": "_amount",
          "type": "uint256"
        }
      ],
      "name": "supplyEthToCompound",
      "outputs": [
        {
          "internalType": "bool",
          "name": "",
          "type": "bool"
        }
      ],
      "stateMutability": "payable",
      "type": "function",
      "payable": true
    },
    {
      "inputs": [
        {
          "internalType": "address",
          "name": "_cEtherContract",
          "type": "address"
        },
        {
          "internalType": "uint256",
          "name": "amount",
          "type": "uint256"
        }
      ],
      "name": "redeemCEth",
      "outputs": [
        {
          "internalType": "bool",
          "name": "",
          "type": "bool"
        }
      ],
      "stateMutability": "nonpayable",
      "type": "function"
    }
  ],
  "bytecode": "0x6080604052610553806100136000396000f3fe608060405260043610610046576000357c01000000000000000000000000000000000000000000000000000000009004806325c8764e1461004b578063e6681900146100b1575b600080fd5b6100976004803603604081101561006157600080fd5b81019080803573ffffffffffffffffffffffffffffffffffffffff16906020019092919080359060200190929190505050610124565b604051808215151515815260200191505060405180910390f35b3480156100bd57600080fd5b5061010a600480360360408110156100d457600080fd5b81019080803573ffffffffffffffffffffffffffffffffffffffff169060200190929190803590602001909291905050506103c3565b604051808215151515815260200191505060405180910390f35b60008083905060008173ffffffffffffffffffffffffffffffffffffffff1663bd6d894d6040518163ffffffff167c0100000000000000000000000000000000000000000000000000000000028152600401602060405180830381600087803b15801561019057600080fd5b505af11580156101a4573d6000803e3d6000fd5b505050506040513d60208110156101ba57600080fd5b810190808051906020019092919050505090507fd0c55d35e13dcf688185029be63a7caa6fa1f0a0d7e3c4901b7405a2b9fac563816040518080602001838152602001828103825260238152602001806104fb602391396040019250505060405180910390a160008273ffffffffffffffffffffffffffffffffffffffff1663ae9d70b06040518163ffffffff167c0100000000000000000000000000000000000000000000000000000000028152600401602060405180830381600087803b15801561028657600080fd5b505af115801561029a573d6000803e3d6000fd5b505050506040513d60208110156102b057600080fd5b810190808051906020019092919050505090507fd0c55d35e13dcf688185029be63a7caa6fa1f0a0d7e3c4901b7405a2b9fac563816040518080602001838152602001828103825260208152602001807f537570706c7920526174653a20287363616c65642075702062792031653138298152506020019250505060405180910390a18273ffffffffffffffffffffffffffffffffffffffff16631249c58b866203d090906040518363ffffffff167c01000000000000000000000000000000000000000000000000000000000281526004016000604051808303818589803b15801561039c57600080fd5b5088f11580156103b0573d6000803e3d6000fd5b5050505050506001935050505092915050565b60008083905060008173ffffffffffffffffffffffffffffffffffffffff1663852a12e3856040518263ffffffff167c010000000000000000000000000000000000000000000000000000000002815260040180828152602001915050602060405180830381600087803b15801561043a57600080fd5b505af115801561044e573d6000803e3d6000fd5b505050506040513d602081101561046457600080fd5b810190808051906020019092919050505090507fd0c55d35e13dcf688185029be63a7caa6fa1f0a0d7e3c4901b7405a2b9fac563816040518080602001838152602001828103825260248152602001806104d7602491396040019250505060405180910390a16001925050509291505056fe49662074686973206973206e6f7420302c2074686572652077617320616e206572726f7245786368616e6765205261746520287363616c65642075702062792031653138293a20a2646970667358221220109dacb6fb117b6f94c4514bfe6d79a57a5de9cfe69defe39fe7ee012f1b766864736f6c63430006000033",
  "source": "pragma solidity ^0.6.0;\n\ninterface CEth {\n    function mint() external payable;\n\n    function exchangeRateCurrent() external returns (uint256);\n\n    function supplyRatePerBlock() external returns (uint256);\n\n    function redeem(uint) external returns (uint);\n\n    function redeemUnderlying(uint) external returns (uint);\n}\n\n\ncontract CompoundWallet {\n  event WalletLog(string, uint256);\n\n  constructor() public payable { }\n\n  function supplyEthToCompound(address payable _cEtherContract, uint256 _amount) public payable returns (bool) {\n    CEth cToken = CEth(_cEtherContract);\n\n    uint256 exchangeRateMantissa = cToken.exchangeRateCurrent();\n    emit WalletLog(\"Exchange Rate (scaled up by 1e18): \", exchangeRateMantissa);\n\n    uint256 supplyRateMantissa = cToken.supplyRatePerBlock();\n    emit WalletLog(\"Supply Rate: (scaled up by 1e18)\", supplyRateMantissa);\n\n    cToken.mint.value(_amount).gas(250000)();\n    return true;\n  }\n\n  function redeemCEth(address _cEtherContract, uint256 amount) public returns (bool) {\n    CEth cToken = CEth(_cEtherContract);\n\n    uint256 redeemResult = cToken.redeemUnderlying(amount);\n\n    emit WalletLog(\"If this is not 0, there was an error\", redeemResult);\n\n    return true;\n  }\n\n}\n",
  "sourcePath": "/Users/osamamiro/defi/sern/sern/contracts/CompoundWallet.sol",
  "compiler": {
    "name": "solc",
    "version": "0.6.0+commit.26b70077.Emscripten.clang"
  },
  "schemaVersion": "3.2.0",
  "updatedAt": "2021-01-30T00:38:32.145Z",
  "networkType": "ethereum",
  "devdoc": {
    "methods": {}
  },
  "userdoc": {
    "methods": {}
  }
}