{
  "contractName": "InvestmentFund",
  "abi": [
    {
      "inputs": [
        {
          "internalType": "address",
          "name": "_creator",
          "type": "address"
        },
        {
          "internalType": "string",
          "name": "_title",
          "type": "string"
        },
        {
          "internalType": "string",
          "name": "_desc",
          "type": "string"
        }
      ],
      "stateMutability": "nonpayable",
      "type": "constructor"
    },
    {
      "anonymous": false,
      "inputs": [
        {
          "indexed": false,
          "internalType": "address",
          "name": "investor",
          "type": "address"
        },
        {
          "indexed": false,
          "internalType": "uint256",
          "name": "amount",
          "type": "uint256"
        },
        {
          "indexed": false,
          "internalType": "uint256",
          "name": "currentTotal",
          "type": "uint256"
        }
      ],
      "name": "FundingReceived",
      "type": "event"
    },
    {
      "inputs": [
        {
          "internalType": "address",
          "name": "_address",
          "type": "address"
        }
      ],
      "name": "balance",
      "outputs": [
        {
          "internalType": "uint256",
          "name": "",
          "type": "uint256"
        }
      ],
      "stateMutability": "view",
      "type": "function",
      "constant": true
    },
    {
      "inputs": [],
      "name": "currentBalance",
      "outputs": [
        {
          "internalType": "uint256",
          "name": "",
          "type": "uint256"
        }
      ],
      "stateMutability": "view",
      "type": "function",
      "constant": true
    },
    {
      "inputs": [],
      "name": "desc",
      "outputs": [
        {
          "internalType": "string",
          "name": "",
          "type": "string"
        }
      ],
      "stateMutability": "view",
      "type": "function",
      "constant": true
    },
    {
      "inputs": [
        {
          "internalType": "address",
          "name": "",
          "type": "address"
        }
      ],
      "name": "investments",
      "outputs": [
        {
          "internalType": "uint256",
          "name": "",
          "type": "uint256"
        }
      ],
      "stateMutability": "view",
      "type": "function",
      "constant": true
    },
    {
      "inputs": [],
      "name": "title",
      "outputs": [
        {
          "internalType": "string",
          "name": "",
          "type": "string"
        }
      ],
      "stateMutability": "view",
      "type": "function",
      "constant": true
    },
    {
      "inputs": [],
      "name": "votes",
      "outputs": [
        {
          "internalType": "uint256",
          "name": "",
          "type": "uint256"
        }
      ],
      "stateMutability": "view",
      "type": "function",
      "constant": true
    },
    {
      "inputs": [],
      "name": "contribute",
      "outputs": [],
      "stateMutability": "payable",
      "type": "function",
      "payable": true
    },
    {
      "inputs": [
        {
          "internalType": "address",
          "name": "_voter",
          "type": "address"
        }
      ],
      "name": "vote",
      "outputs": [],
      "stateMutability": "nonpayable",
      "type": "function"
    },
    {
      "inputs": [],
      "name": "invest",
      "outputs": [],
      "stateMutability": "payable",
      "type": "function",
      "payable": true
    }
  ],
  "bytecode": "0x6080604052736b175474e89094c44da98b954eedeac495271d0f600260006101000a81548173ffffffffffffffffffffffffffffffffffffffff021916908373ffffffffffffffffffffffffffffffffffffffff1602179055507316de59092dae5ccf4a1e6439d611fd0653f0bd01600360006101000a81548173ffffffffffffffffffffffffffffffffffffffff021916908373ffffffffffffffffffffffffffffffffffffffff160217905550348015620000bb57600080fd5b50604051620012173803806200121783398181016040526060811015620000e157600080fd5b8101908080519060200190929190805160405193929190846401000000008211156200010c57600080fd5b838201915060208201858111156200012357600080fd5b82518660018202830111640100000000821117156200014157600080fd5b8083526020830192505050908051906020019080838360005b83811015620001775780820151818401526020810190506200015a565b50505050905090810190601f168015620001a55780820380516001836020036101000a031916815260200191505b5060405260200180516040519392919084640100000000821115620001c957600080fd5b83820191506020820185811115620001e057600080fd5b8251866001820283011164010000000082111715620001fe57600080fd5b8083526020830192505050908051906020019080838360005b838110156200023457808201518184015260208101905062000217565b50505050905090810190601f168015620002625780820380516001836020036101000a031916815260200191505b50604052505050336000806101000a81548173ffffffffffffffffffffffffffffffffffffffff021916908373ffffffffffffffffffffffffffffffffffffffff16021790555082600460006101000a81548173ffffffffffffffffffffffffffffffffffffffff021916908373ffffffffffffffffffffffffffffffffffffffff1602179055508160079080519060200190620003029291906200032d565b5080600890805190602001906200031b9291906200032d565b506000600581905550505050620003dc565b828054600181600116156101000203166002900490600052602060002090601f016020900481019282601f106200037057805160ff1916838001178555620003a1565b82800160010185558215620003a1579182015b82811115620003a057825182559160200191906001019062000383565b5b509050620003b09190620003b4565b5090565b620003d991905b80821115620003d5576000816000905550600101620003bb565b5090565b90565b610e2b80620003ec6000396000f3fe6080604052600436106100a3576000357c010000000000000000000000000000000000000000000000000000000090048063ce845d1d11610076578063ce845d1d1461027e578063d7bb99ba146102a9578063e168c3ec146102b3578063e3d670d7146102de578063e8b5e51f14610343576100a3565b80634a79d50c146100a857806355f150f1146101385780636dd7d8ea146101c857806396b9886214610219575b600080fd5b3480156100b457600080fd5b506100bd61034d565b6040518080602001828103825283818151815260200191508051906020019080838360005b838110156100fd5780820151818401526020810190506100e2565b50505050905090810190601f16801561012a5780820380516001836020036101000a031916815260200191505b509250505060405180910390f35b34801561014457600080fd5b5061014d6103eb565b6040518080602001828103825283818151815260200191508051906020019080838360005b8381101561018d578082015181840152602081019050610172565b50505050905090810190601f1680156101ba5780820380516001836020036101000a031916815260200191505b509250505060405180910390f35b3480156101d457600080fd5b50610217600480360360208110156101eb57600080fd5b81019080803573ffffffffffffffffffffffffffffffffffffffff169060200190929190505050610489565b005b34801561022557600080fd5b506102686004803603602081101561023c57600080fd5b81019080803573ffffffffffffffffffffffffffffffffffffffff169060200190929190505050610505565b6040518082815260200191505060405180910390f35b34801561028a57600080fd5b5061029361051d565b6040518082815260200191505060405180910390f35b6102b1610523565b005b3480156102bf57600080fd5b506102c86106c3565b6040518082815260200191505060405180910390f35b3480156102ea57600080fd5b5061032d6004803603602081101561030157600080fd5b81019080803573ffffffffffffffffffffffffffffffffffffffff1690602001909291905050506106c9565b6040518082815260200191505060405180910390f35b61034b610893565b005b60078054600181600116156101000203166002900480601f0160208091040260200160405190810160405280929190818152602001828054600181600116156101000203166002900480156103e35780601f106103b8576101008083540402835291602001916103e3565b820191906000526020600020905b8154815290600101906020018083116103c657829003601f168201915b505050505081565b60088054600181600116156101000203166002900480601f0160208091040260200160405190810160405280929190818152602001828054600181600116156101000203166002900480156104815780601f1061045657610100808354040283529160200191610481565b820191906000526020600020905b81548152906001019060200180831161046457829003601f168201915b505050505081565b6000610496600a83610998565b90508061050157600a829080600181540180825580915050600190039060005260206000200160009091909190916101000a81548173ffffffffffffffffffffffffffffffffffffffff021916908373ffffffffffffffffffffffffffffffffffffffff1602179055505b5050565b600b6020528060005260406000206000915090505481565b60055481565b61057534600b60003373ffffffffffffffffffffffffffffffffffffffff1673ffffffffffffffffffffffffffffffffffffffff16815260200190815260200160002054610a3890919063ffffffff16565b600b60003373ffffffffffffffffffffffffffffffffffffffff1673ffffffffffffffffffffffffffffffffffffffff168152602001908152602001600020819055506105cd34600554610a3890919063ffffffff16565b60058190555060006105e0600933610998565b90508061064b576009339080600181540180825580915050600190039060005260206000200160009091909190916101000a81548173ffffffffffffffffffffffffffffffffffffffff021916908373ffffffffffffffffffffffffffffffffffffffff1602179055505b7f5cdc4ab8d637538ead6cc1904d4160343656c8c82bd266635cfd31ac008fffe03334600554604051808473ffffffffffffffffffffffffffffffffffffffff1673ffffffffffffffffffffffffffffffffffffffff168152602001838152602001828152602001935050505060405180910390a150565b60065481565b600080600360009054906101000a900473ffffffffffffffffffffffffffffffffffffffff1673ffffffffffffffffffffffffffffffffffffffff166377c7b8fc6040518163ffffffff167c010000000000000000000000000000000000000000000000000000000002815260040160206040518083038186803b15801561075057600080fd5b505afa158015610764573d6000803e3d6000fd5b505050506040513d602081101561077a57600080fd5b810190808051906020019092919050505090506000600360009054906101000a900473ffffffffffffffffffffffffffffffffffffffff1673ffffffffffffffffffffffffffffffffffffffff166370a08231856040518263ffffffff167c0100000000000000000000000000000000000000000000000000000000028152600401808273ffffffffffffffffffffffffffffffffffffffff1673ffffffffffffffffffffffffffffffffffffffff16815260200191505060206040518083038186803b15801561084a57600080fd5b505afa15801561085e573d6000803e3d6000fd5b505050506040513d602081101561087457600080fd5b8101908080519060200190929190505050905081810292505050919050565b61089e600933610998565b610910576040517f08c379a000000000000000000000000000000000000000000000000000000000815260040180806020018281038252600c8152602001807f556e617574686f72697a6564000000000000000000000000000000000000000081525060200191505060405180910390fd5b610918610ac0565b61098a576040517f08c379a00000000000000000000000000000000000000000000000000000000081526004018080602001828103825260108152602001807f4e6f7420656e6f75676820766f7465730000000000000000000000000000000081525060200191505060405180910390fd5b61099630600554610ae4565b565b6000806000905060008090505b8480549050811015610a2d578373ffffffffffffffffffffffffffffffffffffffff168582815481106109d457fe5b9060005260206000200160009054906101000a900473ffffffffffffffffffffffffffffffffffffffff1673ffffffffffffffffffffffffffffffffffffffff161415610a2057600191505b80806001019150506109a5565b508091505092915050565b600080828401905083811015610ab6576040517f08c379a000000000000000000000000000000000000000000000000000000000815260040180806020018281038252601b8152602001807f536166654d6174683a206164646974696f6e206f766572666c6f77000000000081525060200191505060405180910390fd5b8091505092915050565b600080600260098054905081610ad257fe5b04600a80549050101590508091505090565b600260009054906101000a900473ffffffffffffffffffffffffffffffffffffffff1673ffffffffffffffffffffffffffffffffffffffff166323b872dd8330846040518463ffffffff167c0100000000000000000000000000000000000000000000000000000000028152600401808473ffffffffffffffffffffffffffffffffffffffff1673ffffffffffffffffffffffffffffffffffffffff1681526020018373ffffffffffffffffffffffffffffffffffffffff1673ffffffffffffffffffffffffffffffffffffffff1681526020018281526020019350505050602060405180830381600087803b158015610bdd57600080fd5b505af1158015610bf1573d6000803e3d6000fd5b505050506040513d6020811015610c0757600080fd5b810190808051906020019092919050505050610c2281610c26565b5050565b600260009054906101000a900473ffffffffffffffffffffffffffffffffffffffff1673ffffffffffffffffffffffffffffffffffffffff1663095ea7b3600360009054906101000a900473ffffffffffffffffffffffffffffffffffffffff16836040518363ffffffff167c0100000000000000000000000000000000000000000000000000000000028152600401808373ffffffffffffffffffffffffffffffffffffffff1673ffffffffffffffffffffffffffffffffffffffff16815260200182815260200192505050602060405180830381600087803b158015610d0d57600080fd5b505af1158015610d21573d6000803e3d6000fd5b505050506040513d6020811015610d3757600080fd5b810190808051906020019092919050505050600360009054906101000a900473ffffffffffffffffffffffffffffffffffffffff1673ffffffffffffffffffffffffffffffffffffffff1663b6b55f25826040518263ffffffff167c010000000000000000000000000000000000000000000000000000000002815260040180828152602001915050600060405180830381600087803b158015610dda57600080fd5b505af1158015610dee573d6000803e3d6000fd5b505050505056fea26469706673582212208bb8aeec20332077f3760647f76d6ad0020981c2e3de91acee6ae9988a6bc32464736f6c63430006000033",
  "source": "pragma solidity ^0.6.0;\n\nimport '@openzeppelin/contracts/math/SafeMath.sol';\nimport './Wallet.sol';\n\ncontract InvestmentFund is Wallet {\n  using SafeMath for uint256;\n\n  address creator;\n  uint256 public currentBalance;\n  uint256 public votes;\n  string public title;\n  string public desc;\n\n  address[] internal investors;\n  address[] internal voters;\n  mapping(address => uint256) public investments;\n\n  event FundingReceived(address investor, uint amount, uint currentTotal);\n\n  constructor(address _creator, string memory _title, string memory _desc) public {\n    creator = _creator;\n    title = _title;\n    desc = _desc;\n    currentBalance = 0;\n  }\n\n  function contribute() external payable {\n    investments[msg.sender] = investments[msg.sender].add(msg.value);\n    currentBalance = currentBalance.add(msg.value);\n    bool hasInvested = hasParticipated(investors, msg.sender);\n    if (!hasInvested) {\n      investors.push(msg.sender);\n    }\n\n    emit FundingReceived(msg.sender, msg.value, currentBalance);\n  }\n\n  function vote(address _voter) external {\n    bool hasVoted = hasParticipated(voters, _voter);\n    if (!hasVoted) {\n      voters.push(_voter);\n    }\n  }\n\n  function hasVotes() internal view returns (bool) {\n    bool majorityVotes = voters.length >= (investors.length / 2);\n    return majorityVotes;\n  }\n\n  function hasParticipated(address[] storage _addressList, address _investor) internal view returns (bool) {\n    bool participated = false;\n    for (uint i = 0; i < _addressList.length; i++) {\n      if (_addressList[i] == _investor) {\n        participated = true;\n      }\n    }\n    return participated;\n  }\n\n  function invest() public payable {\n    require(hasParticipated(investors, msg.sender), 'Unauthorized');\n    require (hasVotes(), 'Not enough votes');\n    save(address(this), currentBalance);\n  }\n\n}\n",
  "sourcePath": "/Users/osamamiro/defi/sern/sern/src/contracts/InvestmentFund.sol",
  "compiler": {
    "name": "solc",
    "version": "0.6.0+commit.26b70077.Emscripten.clang"
  },
  "schemaVersion": "3.2.0",
  "updatedAt": "2021-01-26T03:47:51.863Z",
  "networkType": "ethereum",
  "devdoc": {
    "methods": {}
  },
  "userdoc": {
    "methods": {}
  }
}