{
  "contractName": "InvestmentFund",
  "abi": [
    {
      "inputs": [
        {
          "internalType": "string",
          "name": "_title",
          "type": "string"
        },
        {
          "internalType": "string",
          "name": "_desc",
          "type": "string"
        }
      ],
      "stateMutability": "nonpayable",
      "type": "constructor"
    },
    {
      "anonymous": false,
      "inputs": [
        {
          "indexed": false,
          "internalType": "address",
          "name": "investor",
          "type": "address"
        },
        {
          "indexed": false,
          "internalType": "uint256",
          "name": "amount",
          "type": "uint256"
        },
        {
          "indexed": false,
          "internalType": "uint256",
          "name": "currentTotal",
          "type": "uint256"
        }
      ],
      "name": "FundingReceived",
      "type": "event"
    },
    {
      "anonymous": false,
      "inputs": [
        {
          "indexed": false,
          "internalType": "string",
          "name": "",
          "type": "string"
        },
        {
          "indexed": false,
          "internalType": "uint256",
          "name": "",
          "type": "uint256"
        }
      ],
      "name": "WalletLog",
      "type": "event"
    },
    {
      "inputs": [],
      "name": "currentBalance",
      "outputs": [
        {
          "internalType": "uint256",
          "name": "",
          "type": "uint256"
        }
      ],
      "stateMutability": "view",
      "type": "function",
      "constant": true
    },
    {
      "inputs": [],
      "name": "desc",
      "outputs": [
        {
          "internalType": "string",
          "name": "",
          "type": "string"
        }
      ],
      "stateMutability": "view",
      "type": "function",
      "constant": true
    },
    {
      "inputs": [
        {
          "internalType": "address",
          "name": "",
          "type": "address"
        }
      ],
      "name": "investments",
      "outputs": [
        {
          "internalType": "uint256",
          "name": "",
          "type": "uint256"
        }
      ],
      "stateMutability": "view",
      "type": "function",
      "constant": true
    },
    {
      "inputs": [
        {
          "internalType": "uint256",
          "name": "",
          "type": "uint256"
        }
      ],
      "name": "investors",
      "outputs": [
        {
          "internalType": "address",
          "name": "",
          "type": "address"
        }
      ],
      "stateMutability": "view",
      "type": "function",
      "constant": true
    },
    {
      "inputs": [],
      "name": "profit",
      "outputs": [
        {
          "internalType": "uint256",
          "name": "",
          "type": "uint256"
        }
      ],
      "stateMutability": "view",
      "type": "function",
      "constant": true
    },
    {
      "inputs": [
        {
          "internalType": "address",
          "name": "_cEtherContract",
          "type": "address"
        },
        {
          "internalType": "uint256",
          "name": "amount",
          "type": "uint256"
        }
      ],
      "name": "redeemCEth",
      "outputs": [
        {
          "internalType": "bool",
          "name": "",
          "type": "bool"
        }
      ],
      "stateMutability": "nonpayable",
      "type": "function"
    },
    {
      "inputs": [
        {
          "internalType": "address payable",
          "name": "_cEtherContract",
          "type": "address"
        }
      ],
      "name": "supplyEthToCompound",
      "outputs": [
        {
          "internalType": "bool",
          "name": "",
          "type": "bool"
        }
      ],
      "stateMutability": "payable",
      "type": "function",
      "payable": true
    },
    {
      "inputs": [],
      "name": "title",
      "outputs": [
        {
          "internalType": "string",
          "name": "",
          "type": "string"
        }
      ],
      "stateMutability": "view",
      "type": "function",
      "constant": true
    },
    {
      "inputs": [
        {
          "internalType": "uint256",
          "name": "",
          "type": "uint256"
        }
      ],
      "name": "voters",
      "outputs": [
        {
          "internalType": "address",
          "name": "",
          "type": "address"
        }
      ],
      "stateMutability": "view",
      "type": "function",
      "constant": true
    },
    {
      "inputs": [],
      "name": "votes",
      "outputs": [
        {
          "internalType": "uint256",
          "name": "",
          "type": "uint256"
        }
      ],
      "stateMutability": "view",
      "type": "function",
      "constant": true
    },
    {
      "inputs": [],
      "name": "contribute",
      "outputs": [],
      "stateMutability": "payable",
      "type": "function",
      "payable": true
    },
    {
      "inputs": [],
      "name": "vote",
      "outputs": [],
      "stateMutability": "nonpayable",
      "type": "function"
    },
    {
      "inputs": [],
      "name": "getVoters",
      "outputs": [
        {
          "internalType": "address[]",
          "name": "",
          "type": "address[]"
        }
      ],
      "stateMutability": "view",
      "type": "function",
      "constant": true
    },
    {
      "inputs": [
        {
          "internalType": "address payable",
          "name": "_cEtherContract",
          "type": "address"
        },
        {
          "internalType": "address payable",
          "name": "_compoundWallet",
          "type": "address"
        }
      ],
      "name": "invest",
      "outputs": [
        {
          "internalType": "bool",
          "name": "",
          "type": "bool"
        }
      ],
      "stateMutability": "payable",
      "type": "function",
      "payable": true
    },
    {
      "inputs": [
        {
          "internalType": "address payable",
          "name": "_cEtherContract",
          "type": "address"
        },
        {
          "internalType": "address payable",
          "name": "_compoundWallet",
          "type": "address"
        },
        {
          "internalType": "uint256",
          "name": "_amount",
          "type": "uint256"
        }
      ],
      "name": "withdrawInvestment",
      "outputs": [],
      "stateMutability": "payable",
      "type": "function",
      "payable": true
    },
    {
      "inputs": [],
      "name": "withdrawFunds",
      "outputs": [],
      "stateMutability": "payable",
      "type": "function",
      "payable": true
    }
  ],
  "bytecode": "0x60806040523480156200001157600080fd5b5060405162001a6338038062001a63833981810160405260408110156200003757600080fd5b81019080805160405193929190846401000000008211156200005857600080fd5b838201915060208201858111156200006f57600080fd5b82518660018202830111640100000000821117156200008d57600080fd5b8083526020830192505050908051906020019080838360005b83811015620000c3578082015181840152602081019050620000a6565b50505050905090810190601f168015620000f15780820380516001836020036101000a031916815260200191505b50604052602001805160405193929190846401000000008211156200011557600080fd5b838201915060208201858111156200012c57600080fd5b82518660018202830111640100000000821117156200014a57600080fd5b8083526020830192505050908051906020019080838360005b838110156200018057808201518184015260208101905062000163565b50505050905090810190601f168015620001ae5780820380516001836020036101000a031916815260200191505b50604052505050336000806101000a81548173ffffffffffffffffffffffffffffffffffffffff021916908373ffffffffffffffffffffffffffffffffffffffff16021790555081600790805190602001906200020d9291906200023f565b508060089080519060200190620002269291906200023f565b50600060048190555060006005819055505050620002ee565b828054600181600116156101000203166002900490600052602060002090601f016020900481019282601f106200028257805160ff1916838001178555620002b3565b82800160010185558215620002b3579182015b82811115620002b257825182559160200191906001019062000295565b5b509050620002c29190620002c6565b5090565b620002eb91905b80821115620002e7576000816000905550600101620002cd565b5090565b90565b61176580620002fe6000396000f3fe608060405260043610610110576000357c010000000000000000000000000000000000000000000000000000000090048063cdd72253116100a7578063e168c3ec11610076578063e168c3ec146104d9578063e28336e914610504578063e668190014610572578063ff8a4efe146105e557610110565b8063cdd72253146103bd578063ce845d1d14610429578063d7bb99ba14610454578063da58c7d91461045e57610110565b8063632a9a52116100e3578063632a9a52146102ba57806366d16cc3146102d157806396b98862146102fc578063a82ffd881461036157610110565b806324600fc3146101155780633feb5f2b1461011f5780634a79d50c1461019a57806355f150f11461022a575b600080fd5b61011d610661565b005b34801561012b57600080fd5b506101586004803603602081101561014257600080fd5b81019080803590602001909291905050506108fb565b604051808273ffffffffffffffffffffffffffffffffffffffff1673ffffffffffffffffffffffffffffffffffffffff16815260200191505060405180910390f35b3480156101a657600080fd5b506101af610937565b6040518080602001828103825283818151815260200191508051906020019080838360005b838110156101ef5780820151818401526020810190506101d4565b50505050905090810190601f16801561021c5780820380516001836020036101000a031916815260200191505b509250505060405180910390f35b34801561023657600080fd5b5061023f6109d5565b6040518080602001828103825283818151815260200191508051906020019080838360005b8381101561027f578082015181840152602081019050610264565b50505050905090810190601f1680156102ac5780820380516001836020036101000a031916815260200191505b509250505060405180910390f35b3480156102c657600080fd5b506102cf610a73565b005b3480156102dd57600080fd5b506102e6610aee565b6040518082815260200191505060405180910390f35b34801561030857600080fd5b5061034b6004803603602081101561031f57600080fd5b81019080803573ffffffffffffffffffffffffffffffffffffffff169060200190929190505050610af4565b6040518082815260200191505060405180910390f35b6103a36004803603602081101561037757600080fd5b81019080803573ffffffffffffffffffffffffffffffffffffffff169060200190929190505050610b0c565b604051808215151515815260200191505060405180910390f35b3480156103c957600080fd5b506103d2610daa565b6040518080602001828103825283818151815260200191508051906020019060200280838360005b838110156104155780820151818401526020810190506103fa565b505050509050019250505060405180910390f35b34801561043557600080fd5b5061043e610e38565b6040518082815260200191505060405180910390f35b61045c610e3e565b005b34801561046a57600080fd5b506104976004803603602081101561048157600080fd5b8101908080359060200190929190505050610fde565b604051808273ffffffffffffffffffffffffffffffffffffffff1673ffffffffffffffffffffffffffffffffffffffff16815260200191505060405180910390f35b3480156104e557600080fd5b506104ee61101a565b6040518082815260200191505060405180910390f35b6105706004803603606081101561051a57600080fd5b81019080803573ffffffffffffffffffffffffffffffffffffffff169060200190929190803573ffffffffffffffffffffffffffffffffffffffff16906020019092919080359060200190929190505050611020565b005b34801561057e57600080fd5b506105cb6004803603604081101561059557600080fd5b81019080803573ffffffffffffffffffffffffffffffffffffffff169060200190929190803590602001909291905050506112a0565b604051808215151515815260200191505060405180910390f35b610647600480360360408110156105fb57600080fd5b81019080803573ffffffffffffffffffffffffffffffffffffffff169060200190929190803573ffffffffffffffffffffffffffffffffffffffff1690602001909291905050506113b3565b604051808215151515815260200191505060405180910390f35b6000600554116106d9576040517f08c379a00000000000000000000000000000000000000000000000000000000081526004018080602001828103825260158152602001807f57697468647261772070726f666974206669727374000000000000000000000081525060200191505060405180910390fd5b6106e460013361159d565b610756576040517f08c379a00000000000000000000000000000000000000000000000000000000081526004018080602001828103825260118152602001807f416c72656164792077697468647261776e00000000000000000000000000000081525060200191505060405180910390fd5b61076160023361159d565b6107d3576040517f08c379a000000000000000000000000000000000000000000000000000000000815260040180806020018281038252600c8152602001807f556e617574686f72697a6564000000000000000000000000000000000000000081525060200191505060405180910390fd5b6000600960003373ffffffffffffffffffffffffffffffffffffffff1673ffffffffffffffffffffffffffffffffffffffff1681526020019081526020016000205490506000600454828161082457fe5b0490506000816005540290503373ffffffffffffffffffffffffffffffffffffffff166108fc829081150290604051600060405180830381858888f19350505050158015610876573d6000803e3d6000fd5b506001339080600181540180825580915050600190039060005260206000200160009091909190916101000a81548173ffffffffffffffffffffffffffffffffffffffff021916908373ffffffffffffffffffffffffffffffffffffffff1602179055506002805490506001808054905001106108f65760006004819055505b505050565b6002818154811061090857fe5b906000526020600020016000915054906101000a900473ffffffffffffffffffffffffffffffffffffffff1681565b60078054600181600116156101000203166002900480601f0160208091040260200160405190810160405280929190818152602001828054600181600116156101000203166002900480156109cd5780601f106109a2576101008083540402835291602001916109cd565b820191906000526020600020905b8154815290600101906020018083116109b057829003601f168201915b505050505081565b60088054600181600116156101000203166002900480601f016020809104026020016040519081016040528092919081815260200182805460018160011615610100020316600290048015610a6b5780601f10610a4057610100808354040283529160200191610a6b565b820191906000526020600020905b815481529060010190602001808311610a4e57829003601f168201915b505050505081565b6000610a8060033361159d565b905080610aeb576003339080600181540180825580915050600190039060005260206000200160009091909190916101000a81548173ffffffffffffffffffffffffffffffffffffffff021916908373ffffffffffffffffffffffffffffffffffffffff1602179055505b50565b60055481565b60096020528060005260406000206000915090505481565b60008082905060008173ffffffffffffffffffffffffffffffffffffffff1663bd6d894d6040518163ffffffff167c0100000000000000000000000000000000000000000000000000000000028152600401602060405180830381600087803b158015610b7857600080fd5b505af1158015610b8c573d6000803e3d6000fd5b505050506040513d6020811015610ba257600080fd5b810190808051906020019092919050505090507fd0c55d35e13dcf688185029be63a7caa6fa1f0a0d7e3c4901b7405a2b9fac5638160405180806020018381526020018281038252602381526020018061170d602391396040019250505060405180910390a160008273ffffffffffffffffffffffffffffffffffffffff1663ae9d70b06040518163ffffffff167c0100000000000000000000000000000000000000000000000000000000028152600401602060405180830381600087803b158015610c6e57600080fd5b505af1158015610c82573d6000803e3d6000fd5b505050506040513d6020811015610c9857600080fd5b810190808051906020019092919050505090507fd0c55d35e13dcf688185029be63a7caa6fa1f0a0d7e3c4901b7405a2b9fac563816040518080602001838152602001828103825260208152602001807f537570706c7920526174653a20287363616c65642075702062792031653138298152506020019250505060405180910390a18273ffffffffffffffffffffffffffffffffffffffff16631249c58b346203d090906040518363ffffffff167c01000000000000000000000000000000000000000000000000000000000281526004016000604051808303818589803b158015610d8457600080fd5b5088f1158015610d98573d6000803e3d6000fd5b50505050505060019350505050919050565b60606003805480602002602001604051908101604052809291908181526020018280548015610e2e57602002820191906000526020600020905b8160009054906101000a900473ffffffffffffffffffffffffffffffffffffffff1673ffffffffffffffffffffffffffffffffffffffff1681526020019060010190808311610de4575b5050505050905090565b60045481565b610e9034600960003373ffffffffffffffffffffffffffffffffffffffff1673ffffffffffffffffffffffffffffffffffffffff1681526020019081526020016000205461163d90919063ffffffff16565b600960003373ffffffffffffffffffffffffffffffffffffffff1673ffffffffffffffffffffffffffffffffffffffff16815260200190815260200160002081905550610ee83460045461163d90919063ffffffff16565b6004819055506000610efb60023361159d565b905080610f66576002339080600181540180825580915050600190039060005260206000200160009091909190916101000a81548173ffffffffffffffffffffffffffffffffffffffff021916908373ffffffffffffffffffffffffffffffffffffffff1602179055505b7f5cdc4ab8d637538ead6cc1904d4160343656c8c82bd266635cfd31ac008fffe03334600454604051808473ffffffffffffffffffffffffffffffffffffffff1673ffffffffffffffffffffffffffffffffffffffff168152602001838152602001828152602001935050505060405180910390a150565b60038181548110610feb57fe5b906000526020600020016000915054906101000a900473ffffffffffffffffffffffffffffffffffffffff1681565b60065481565b60008111611096576040517f08c379a000000000000000000000000000000000000000000000000000000000815260040180806020018281038252600e8152602001807f4e6f2070726f666974207965742100000000000000000000000000000000000081525060200191505060405180910390fd5b6110a160023361159d565b611113576040517f08c379a000000000000000000000000000000000000000000000000000000000815260040180806020018281038252600c8152602001807f556e617574686f72697a6564000000000000000000000000000000000000000081525060200191505060405180910390fd5b61111b6116c5565b61118d576040517f08c379a00000000000000000000000000000000000000000000000000000000081526004018080602001828103825260108152602001807f4e6f7420656e6f75676820766f7465730000000000000000000000000000000081525060200191505060405180910390fd5b600082905060008173ffffffffffffffffffffffffffffffffffffffff1663e668190086856040518363ffffffff167c0100000000000000000000000000000000000000000000000000000000028152600401808373ffffffffffffffffffffffffffffffffffffffff1673ffffffffffffffffffffffffffffffffffffffff16815260200182815260200192505050602060405180830381600087803b15801561123757600080fd5b505af115801561124b573d6000803e3d6000fd5b505050506040513d602081101561126157600080fd5b810190808051906020019092919050505090508015611299573073ffffffffffffffffffffffffffffffffffffffff16316005819055505b5050505050565b60008083905060008173ffffffffffffffffffffffffffffffffffffffff1663852a12e3856040518263ffffffff167c010000000000000000000000000000000000000000000000000000000002815260040180828152602001915050602060405180830381600087803b15801561131757600080fd5b505af115801561132b573d6000803e3d6000fd5b505050506040513d602081101561134157600080fd5b810190808051906020019092919050505090507fd0c55d35e13dcf688185029be63a7caa6fa1f0a0d7e3c4901b7405a2b9fac563816040518080602001838152602001828103825260248152602001806116e9602491396040019250505060405180910390a160019250505092915050565b60006113c060023361159d565b611432576040517f08c379a000000000000000000000000000000000000000000000000000000000815260040180806020018281038252600c8152602001807f556e617574686f72697a6564000000000000000000000000000000000000000081525060200191505060405180910390fd5b61143a6116c5565b6114ac576040517f08c379a00000000000000000000000000000000000000000000000000000000081526004018080602001828103825260108152602001807f4e6f7420656e6f75676820766f7465730000000000000000000000000000000081525060200191505060405180910390fd5b600082905060008173ffffffffffffffffffffffffffffffffffffffff1663a82ffd8834622625a090886040518463ffffffff167c0100000000000000000000000000000000000000000000000000000000028152600401808273ffffffffffffffffffffffffffffffffffffffff1673ffffffffffffffffffffffffffffffffffffffff1681526020019150506020604051808303818589803b15801561155357600080fd5b5088f1158015611567573d6000803e3d6000fd5b5050505050506040513d602081101561157f57600080fd5b81019080805190602001909291905050509050809250505092915050565b6000806000905060008090505b8480549050811015611632578373ffffffffffffffffffffffffffffffffffffffff168582815481106115d957fe5b9060005260206000200160009054906101000a900473ffffffffffffffffffffffffffffffffffffffff1673ffffffffffffffffffffffffffffffffffffffff16141561162557600191505b80806001019150506115aa565b508091505092915050565b6000808284019050838110156116bb576040517f08c379a000000000000000000000000000000000000000000000000000000000815260040180806020018281038252601b8152602001807f536166654d6174683a206164646974696f6e206f766572666c6f77000000000081525060200191505060405180910390fd5b8091505092915050565b60008060028080549050816116d657fe5b0460038054905010159050809150509056fe49662074686973206973206e6f7420302c2074686572652077617320616e206572726f7245786368616e6765205261746520287363616c65642075702062792031653138293a20a2646970667358221220994dcf716fdee3ed2b7d38c0cdd20edf2c6733ea23053976a700bb1cc8a44c5464736f6c63430006000033",
  "source": "pragma solidity ^0.6.0;\n\nimport '@openzeppelin/contracts/math/SafeMath.sol';\nimport './CompoundWallet.sol';\n\ncontract InvestmentFund is CompoundWallet {\n  using SafeMath for uint256;\n\n  address creator;\n  address[] internal hasWithdrawn;\n  address[] public investors;\n  address[] public voters;\n  uint256 public currentBalance;\n  uint256 public profit;\n  uint256 public votes;\n  string public title;\n  string public desc;\n\n  mapping(address => uint256) public investments;\n\n  event FundingReceived(address investor, uint amount, uint currentTotal);\n\n  constructor(string memory _title, string memory _desc) public {\n    creator = msg.sender;\n    title = _title;\n    desc = _desc;\n    currentBalance = 0;\n    profit = 0;\n  }\n\n  function contribute() external payable {\n    investments[msg.sender] = investments[msg.sender].add(msg.value);\n    currentBalance = currentBalance.add(msg.value);\n    bool hasInvested = hasParticipated(investors, msg.sender);\n    if (!hasInvested) {\n      investors.push(msg.sender);\n    }\n\n    emit FundingReceived(msg.sender, msg.value, currentBalance);\n  }\n\n  function vote() external {\n    bool hasVoted = hasParticipated(voters, msg.sender);\n    if (!hasVoted) {\n      voters.push(msg.sender);\n    }\n  }\n\n  function hasVotes() internal view returns (bool) {\n    bool majorityVotes = voters.length >= (investors.length / 2);\n    return majorityVotes;\n  }\n\n  function getVoters() external view returns (address[] memory) {\n    return voters;\n  }\n\n  function hasParticipated(address[] storage _addressList, address _investor) internal view returns (bool) {\n    bool participated = false;\n    for (uint i = 0; i < _addressList.length; i++) {\n      if (_addressList[i] == _investor) {\n        participated = true;\n      }\n    }\n    return participated;\n  }\n\n  function invest(address payable _cEtherContract, address payable _compoundWallet) public payable returns (bool) {\n    require(hasParticipated(investors, msg.sender), 'Unauthorized');\n    require (hasVotes(), 'Not enough votes');\n    CompoundWallet compoundWallet = CompoundWallet(_compoundWallet);\n    bool isInvested = compoundWallet.supplyEthToCompound.value(msg.value).gas(2500000)(_cEtherContract);\n    return isInvested;\n  }\n\n  function withdrawInvestment(address payable _cEtherContract, address payable _compoundWallet, uint256 _amount) public payable {\n    require(_amount > 0, 'No profit yet!');\n    require(hasParticipated(investors, msg.sender), 'Unauthorized');\n    require (hasVotes(), 'Not enough votes');\n    CompoundWallet compoundWallet = CompoundWallet(_compoundWallet);\n    bool isProfit = compoundWallet.redeemCEth(_cEtherContract, _amount);\n    if (isProfit) {\n      profit = address(this).balance;\n    }\n  }\n\n  function withdrawFunds() public payable {\n    require(profit > 0, 'Withdraw profit first');\n    require(hasParticipated(hasWithdrawn, msg.sender), 'Already withdrawn');\n    require(hasParticipated(investors, msg.sender), 'Unauthorized');\n    uint256 initialInvestment = investments[msg.sender];\n    uint256 percentageOfProfit = initialInvestment / currentBalance;\n    uint256 amountToSend = profit * percentageOfProfit;\n    msg.sender.transfer(amountToSend);\n    hasWithdrawn.push(msg.sender);\n    if (hasWithdrawn.length + 1 >= investors.length) {\n      currentBalance = 0;\n    }\n  }\n\n}\n",
  "sourcePath": "/Users/osamamiro/defi/sern/sern/contracts/InvestmentFund.sol",
  "compiler": {
    "name": "solc",
    "version": "0.6.0+commit.26b70077.Emscripten.clang"
  },
  "schemaVersion": "3.2.0",
  "updatedAt": "2021-02-04T03:28:16.325Z",
  "networkType": "ethereum",
  "devdoc": {
    "methods": {}
  },
  "userdoc": {
    "methods": {}
  }
}