{
  "contractName": "InvestmentFund",
  "abi": [
    {
      "inputs": [
        {
          "internalType": "string",
          "name": "_title",
          "type": "string"
        },
        {
          "internalType": "string",
          "name": "_desc",
          "type": "string"
        }
      ],
      "stateMutability": "payable",
      "type": "constructor",
      "payable": true
    },
    {
      "anonymous": false,
      "inputs": [
        {
          "indexed": false,
          "internalType": "address",
          "name": "investor",
          "type": "address"
        },
        {
          "indexed": false,
          "internalType": "uint256",
          "name": "amount",
          "type": "uint256"
        },
        {
          "indexed": false,
          "internalType": "uint256",
          "name": "currentTotal",
          "type": "uint256"
        }
      ],
      "name": "FundingReceived",
      "type": "event"
    },
    {
      "anonymous": false,
      "inputs": [
        {
          "indexed": false,
          "internalType": "string",
          "name": "",
          "type": "string"
        },
        {
          "indexed": false,
          "internalType": "uint256",
          "name": "",
          "type": "uint256"
        }
      ],
      "name": "WalletLog",
      "type": "event"
    },
    {
      "inputs": [],
      "name": "currentBalance",
      "outputs": [
        {
          "internalType": "uint256",
          "name": "",
          "type": "uint256"
        }
      ],
      "stateMutability": "view",
      "type": "function",
      "constant": true
    },
    {
      "inputs": [],
      "name": "desc",
      "outputs": [
        {
          "internalType": "string",
          "name": "",
          "type": "string"
        }
      ],
      "stateMutability": "view",
      "type": "function",
      "constant": true
    },
    {
      "inputs": [
        {
          "internalType": "uint256",
          "name": "",
          "type": "uint256"
        }
      ],
      "name": "hasWithdrawn",
      "outputs": [
        {
          "internalType": "address",
          "name": "",
          "type": "address"
        }
      ],
      "stateMutability": "view",
      "type": "function",
      "constant": true
    },
    {
      "inputs": [],
      "name": "inCycle",
      "outputs": [
        {
          "internalType": "bool",
          "name": "",
          "type": "bool"
        }
      ],
      "stateMutability": "view",
      "type": "function",
      "constant": true
    },
    {
      "inputs": [
        {
          "internalType": "address",
          "name": "",
          "type": "address"
        }
      ],
      "name": "investments",
      "outputs": [
        {
          "internalType": "uint256",
          "name": "",
          "type": "uint256"
        }
      ],
      "stateMutability": "view",
      "type": "function",
      "constant": true
    },
    {
      "inputs": [
        {
          "internalType": "uint256",
          "name": "",
          "type": "uint256"
        }
      ],
      "name": "investors",
      "outputs": [
        {
          "internalType": "address",
          "name": "",
          "type": "address"
        }
      ],
      "stateMutability": "view",
      "type": "function",
      "constant": true
    },
    {
      "inputs": [],
      "name": "profit",
      "outputs": [
        {
          "internalType": "uint256",
          "name": "",
          "type": "uint256"
        }
      ],
      "stateMutability": "view",
      "type": "function",
      "constant": true
    },
    {
      "inputs": [
        {
          "internalType": "address",
          "name": "_cEtherContract",
          "type": "address"
        },
        {
          "internalType": "uint256",
          "name": "amount",
          "type": "uint256"
        }
      ],
      "name": "redeemCEth",
      "outputs": [
        {
          "internalType": "bool",
          "name": "",
          "type": "bool"
        }
      ],
      "stateMutability": "nonpayable",
      "type": "function"
    },
    {
      "inputs": [
        {
          "internalType": "address payable",
          "name": "_cEtherContract",
          "type": "address"
        },
        {
          "internalType": "uint256",
          "name": "_amount",
          "type": "uint256"
        }
      ],
      "name": "supplyEthToCompound",
      "outputs": [
        {
          "internalType": "bool",
          "name": "",
          "type": "bool"
        }
      ],
      "stateMutability": "payable",
      "type": "function",
      "payable": true
    },
    {
      "inputs": [],
      "name": "title",
      "outputs": [
        {
          "internalType": "string",
          "name": "",
          "type": "string"
        }
      ],
      "stateMutability": "view",
      "type": "function",
      "constant": true
    },
    {
      "inputs": [
        {
          "internalType": "uint256",
          "name": "",
          "type": "uint256"
        }
      ],
      "name": "voters",
      "outputs": [
        {
          "internalType": "address",
          "name": "",
          "type": "address"
        }
      ],
      "stateMutability": "view",
      "type": "function",
      "constant": true
    },
    {
      "inputs": [],
      "name": "votes",
      "outputs": [
        {
          "internalType": "uint256",
          "name": "",
          "type": "uint256"
        }
      ],
      "stateMutability": "view",
      "type": "function",
      "constant": true
    },
    {
      "inputs": [],
      "name": "contribute",
      "outputs": [],
      "stateMutability": "payable",
      "type": "function",
      "payable": true
    },
    {
      "inputs": [],
      "name": "vote",
      "outputs": [],
      "stateMutability": "nonpayable",
      "type": "function"
    },
    {
      "inputs": [],
      "name": "getVoters",
      "outputs": [
        {
          "internalType": "address[]",
          "name": "",
          "type": "address[]"
        }
      ],
      "stateMutability": "view",
      "type": "function",
      "constant": true
    },
    {
      "inputs": [],
      "name": "getHasWithdrawn",
      "outputs": [
        {
          "internalType": "address[]",
          "name": "",
          "type": "address[]"
        }
      ],
      "stateMutability": "view",
      "type": "function",
      "constant": true
    },
    {
      "inputs": [
        {
          "internalType": "address payable",
          "name": "_cEtherContract",
          "type": "address"
        },
        {
          "internalType": "uint256",
          "name": "_amount",
          "type": "uint256"
        }
      ],
      "name": "invest",
      "outputs": [
        {
          "internalType": "bool",
          "name": "",
          "type": "bool"
        }
      ],
      "stateMutability": "nonpayable",
      "type": "function"
    },
    {
      "inputs": [
        {
          "internalType": "address payable",
          "name": "_cEtherContract",
          "type": "address"
        },
        {
          "internalType": "uint256",
          "name": "_amount",
          "type": "uint256"
        }
      ],
      "name": "withdrawInvestment",
      "outputs": [],
      "stateMutability": "payable",
      "type": "function",
      "payable": true
    },
    {
      "inputs": [],
      "name": "withdrawFunds",
      "outputs": [
        {
          "internalType": "uint256",
          "name": "",
          "type": "uint256"
        }
      ],
      "stateMutability": "payable",
      "type": "function",
      "payable": true
    }
  ],
  "bytecode": "0x608060405260405162001a3e38038062001a3e833981810160405260408110156200002957600080fd5b81019080805160405193929190846401000000008211156200004a57600080fd5b838201915060208201858111156200006157600080fd5b82518660018202830111640100000000821117156200007f57600080fd5b8083526020830192505050908051906020019080838360005b83811015620000b557808201518184015260208101905062000098565b50505050905090810190601f168015620000e35780820380516001836020036101000a031916815260200191505b50604052602001805160405193929190846401000000008211156200010757600080fd5b838201915060208201858111156200011e57600080fd5b82518660018202830111640100000000821117156200013c57600080fd5b8083526020830192505050908051906020019080838360005b838110156200017257808201518184015260208101905062000155565b50505050905090810190601f168015620001a05780820380516001836020036101000a031916815260200191505b50604052505050336000806101000a81548173ffffffffffffffffffffffffffffffffffffffff021916908373ffffffffffffffffffffffffffffffffffffffff1602179055508160079080519060200190620001ff92919062000231565b5080600890805190602001906200021892919062000231565b50600060048190555060006005819055505050620002e0565b828054600181600116156101000203166002900490600052602060002090601f016020900481019282601f106200027457805160ff1916838001178555620002a5565b82800160010185558215620002a5579182015b82811115620002a457825182559160200191906001019062000287565b5b509050620002b49190620002b8565b5090565b620002dd91905b80821115620002d9576000816000905550600101620002bf565b5090565b90565b61174e80620002f06000396000f3fe6080604052600436106101145760003560e01c806366d16cc3116100a0578063d7bb99ba11610064578063d7bb99ba1461061e578063da58c7d914610628578063e168c3ec146106a3578063e6681900146106ce578063eefc0afd1461074157610114565b806366d16cc31461048457806396b98862146104af578063b9b8c24614610514578063cdd7225314610587578063ce845d1d146105f357610114565b80634a79d50c116100e75780634a79d50c1461026657806355f150f1146102f657806356563be31461038657806361b91e0b14610401578063632a9a521461046d57610114565b8063105c551d1461011957806324600fc31461016757806325c8764e146101855780633feb5f2b146101eb575b600080fd5b6101656004803603604081101561012f57600080fd5b81019080803573ffffffffffffffffffffffffffffffffffffffff16906020019092919080359060200190929190505050610770565b005b61016f610896565b6040518082815260200191505060405180910390f35b6101d16004803603604081101561019b57600080fd5b81019080803573ffffffffffffffffffffffffffffffffffffffff16906020019092919080359060200190929190505050610b3b565b604051808215151515815260200191505060405180910390f35b3480156101f757600080fd5b506102246004803603602081101561020e57600080fd5b8101908080359060200190929190505050610d86565b604051808273ffffffffffffffffffffffffffffffffffffffff1673ffffffffffffffffffffffffffffffffffffffff16815260200191505060405180910390f35b34801561027257600080fd5b5061027b610dc2565b6040518080602001828103825283818151815260200191508051906020019080838360005b838110156102bb5780820151818401526020810190506102a0565b50505050905090810190601f1680156102e85780820380516001836020036101000a031916815260200191505b509250505060405180910390f35b34801561030257600080fd5b5061030b610e60565b6040518080602001828103825283818151815260200191508051906020019080838360005b8381101561034b578082015181840152602081019050610330565b50505050905090810190601f1680156103785780820380516001836020036101000a031916815260200191505b509250505060405180910390f35b34801561039257600080fd5b506103bf600480360360208110156103a957600080fd5b8101908080359060200190929190505050610efe565b604051808273ffffffffffffffffffffffffffffffffffffffff1673ffffffffffffffffffffffffffffffffffffffff16815260200191505060405180910390f35b34801561040d57600080fd5b50610416610f3a565b6040518080602001828103825283818151815260200191508051906020019060200280838360005b8381101561045957808201518184015260208101905061043e565b505050509050019250505060405180910390f35b34801561047957600080fd5b50610482610fc8565b005b34801561049057600080fd5b50610499611043565b6040518082815260200191505060405180910390f35b3480156104bb57600080fd5b506104fe600480360360208110156104d257600080fd5b81019080803573ffffffffffffffffffffffffffffffffffffffff169060200190929190505050611049565b6040518082815260200191505060405180910390f35b34801561052057600080fd5b5061056d6004803603604081101561053757600080fd5b81019080803573ffffffffffffffffffffffffffffffffffffffff16906020019092919080359060200190929190505050611061565b604051808215151515815260200191505060405180910390f35b34801561059357600080fd5b5061059c6111a2565b6040518080602001828103825283818151815260200191508051906020019060200280838360005b838110156105df5780820151818401526020810190506105c4565b505050509050019250505060405180910390f35b3480156105ff57600080fd5b50610608611230565b6040518082815260200191505060405180910390f35b610626611236565b005b34801561063457600080fd5b506106616004803603602081101561064b57600080fd5b81019080803590602001909291905050506113d6565b604051808273ffffffffffffffffffffffffffffffffffffffff1673ffffffffffffffffffffffffffffffffffffffff16815260200191505060405180910390f35b3480156106af57600080fd5b506106b8611412565b6040518082815260200191505060405180910390f35b3480156106da57600080fd5b50610727600480360360408110156106f157600080fd5b81019080803573ffffffffffffffffffffffffffffffffffffffff16906020019092919080359060200190929190505050611418565b604051808215151515815260200191505060405180910390f35b34801561074d57600080fd5b5061075661150f565b604051808215151515815260200191505060405180910390f35b61077b600233611522565b6107ed576040517f08c379a000000000000000000000000000000000000000000000000000000000815260040180806020018281038252600c8152602001807f556e617574686f72697a6564000000000000000000000000000000000000000081525060200191505060405180910390fd5b6107f56115c2565b610867576040517f08c379a00000000000000000000000000000000000000000000000000000000081526004018080602001828103825260108152602001807f4e6f7420656e6f75676820766f7465730000000000000000000000000000000081525060200191505060405180910390fd5b60006108738383611418565b90508015610891578160058190555060036000610890919061168b565b5b505050565b6000806005541161090f576040517f08c379a00000000000000000000000000000000000000000000000000000000081526004018080602001828103825260158152602001807f57697468647261772070726f666974206669727374000000000000000000000081525060200191505060405180910390fd5b61091a600133611522565b1561098d576040517f08c379a00000000000000000000000000000000000000000000000000000000081526004018080602001828103825260118152602001807f416c72656164792077697468647261776e00000000000000000000000000000081525060200191505060405180910390fd5b610998600233611522565b610a0a576040517f08c379a000000000000000000000000000000000000000000000000000000000815260040180806020018281038252600c8152602001807f556e617574686f72697a6564000000000000000000000000000000000000000081525060200191505060405180910390fd5b6000600a60003373ffffffffffffffffffffffffffffffffffffffff1673ffffffffffffffffffffffffffffffffffffffff16815260200190815260200160002054905060006004548281610a5b57fe5b04905060008160055402905060003390508073ffffffffffffffffffffffffffffffffffffffff166108fc839081150290604051600060405180830381858888f19350505050158015610ab2573d6000803e3d6000fd5b506001339080600181540180825580915050600190039060005260206000200160009091909190916101000a81548173ffffffffffffffffffffffffffffffffffffffff021916908373ffffffffffffffffffffffffffffffffffffffff1602179055506002805490506001805490501415610b315760006004819055505b8194505050505090565b60008083905060008173ffffffffffffffffffffffffffffffffffffffff1663bd6d894d6040518163ffffffff1660e01b8152600401602060405180830381600087803b158015610b8b57600080fd5b505af1158015610b9f573d6000803e3d6000fd5b505050506040513d6020811015610bb557600080fd5b810190808051906020019092919050505090507fd0c55d35e13dcf688185029be63a7caa6fa1f0a0d7e3c4901b7405a2b9fac563816040518080602001838152602001828103825260238152602001806116f6602391396040019250505060405180910390a160008273ffffffffffffffffffffffffffffffffffffffff1663ae9d70b06040518163ffffffff1660e01b8152600401602060405180830381600087803b158015610c6557600080fd5b505af1158015610c79573d6000803e3d6000fd5b505050506040513d6020811015610c8f57600080fd5b810190808051906020019092919050505090507fd0c55d35e13dcf688185029be63a7caa6fa1f0a0d7e3c4901b7405a2b9fac563816040518080602001838152602001828103825260208152602001807f537570706c7920526174653a20287363616c65642075702062792031653138298152506020019250505060405180910390a18273ffffffffffffffffffffffffffffffffffffffff16631249c58b866203d090906040518363ffffffff1660e01b81526004016000604051808303818589803b158015610d5f57600080fd5b5088f1158015610d73573d6000803e3d6000fd5b5050505050506001935050505092915050565b60028181548110610d9357fe5b906000526020600020016000915054906101000a900473ffffffffffffffffffffffffffffffffffffffff1681565b60078054600181600116156101000203166002900480601f016020809104026020016040519081016040528092919081815260200182805460018160011615610100020316600290048015610e585780601f10610e2d57610100808354040283529160200191610e58565b820191906000526020600020905b815481529060010190602001808311610e3b57829003601f168201915b505050505081565b60088054600181600116156101000203166002900480601f016020809104026020016040519081016040528092919081815260200182805460018160011615610100020316600290048015610ef65780601f10610ecb57610100808354040283529160200191610ef6565b820191906000526020600020905b815481529060010190602001808311610ed957829003601f168201915b505050505081565b60018181548110610f0b57fe5b906000526020600020016000915054906101000a900473ffffffffffffffffffffffffffffffffffffffff1681565b60606001805480602002602001604051908101604052809291908181526020018280548015610fbe57602002820191906000526020600020905b8160009054906101000a900473ffffffffffffffffffffffffffffffffffffffff1673ffffffffffffffffffffffffffffffffffffffff1681526020019060010190808311610f74575b5050505050905090565b6000610fd5600333611522565b905080611040576003339080600181540180825580915050600190039060005260206000200160009091909190916101000a81548173ffffffffffffffffffffffffffffffffffffffff021916908373ffffffffffffffffffffffffffffffffffffffff1602179055505b50565b60055481565b600a6020528060005260406000206000915090505481565b600061106e600233611522565b6110e0576040517f08c379a000000000000000000000000000000000000000000000000000000000815260040180806020018281038252600c8152602001807f556e617574686f72697a6564000000000000000000000000000000000000000081525060200191505060405180910390fd5b6110e86115c2565b61115a576040517f08c379a00000000000000000000000000000000000000000000000000000000081526004018080602001828103825260108152602001807f4e6f7420656e6f75676820766f7465730000000000000000000000000000000081525060200191505060405180910390fd5b60006111668484610b3b565b90508015611198576001600960006101000a81548160ff02191690831515021790555060036000611197919061168b565b5b8091505092915050565b6060600380548060200260200160405190810160405280929190818152602001828054801561122657602002820191906000526020600020905b8160009054906101000a900473ffffffffffffffffffffffffffffffffffffffff1673ffffffffffffffffffffffffffffffffffffffff16815260200190600101908083116111dc575b5050505050905090565b60045481565b61128834600a60003373ffffffffffffffffffffffffffffffffffffffff1673ffffffffffffffffffffffffffffffffffffffff1681526020019081526020016000205461160390919063ffffffff16565b600a60003373ffffffffffffffffffffffffffffffffffffffff1673ffffffffffffffffffffffffffffffffffffffff168152602001908152602001600020819055506112e03460045461160390919063ffffffff16565b60048190555060006112f3600233611522565b90508061135e576002339080600181540180825580915050600190039060005260206000200160009091909190916101000a81548173ffffffffffffffffffffffffffffffffffffffff021916908373ffffffffffffffffffffffffffffffffffffffff1602179055505b7f5cdc4ab8d637538ead6cc1904d4160343656c8c82bd266635cfd31ac008fffe03334600454604051808473ffffffffffffffffffffffffffffffffffffffff1673ffffffffffffffffffffffffffffffffffffffff168152602001838152602001828152602001935050505060405180910390a150565b600381815481106113e357fe5b906000526020600020016000915054906101000a900473ffffffffffffffffffffffffffffffffffffffff1681565b60065481565b60008083905060008173ffffffffffffffffffffffffffffffffffffffff1663db006a75856040518263ffffffff1660e01b815260040180828152602001915050602060405180830381600087803b15801561147357600080fd5b505af1158015611487573d6000803e3d6000fd5b505050506040513d602081101561149d57600080fd5b810190808051906020019092919050505090507fd0c55d35e13dcf688185029be63a7caa6fa1f0a0d7e3c4901b7405a2b9fac563816040518080602001838152602001828103825260248152602001806116d2602491396040019250505060405180910390a160019250505092915050565b600960009054906101000a900460ff1681565b6000806000905060008090505b84805490508110156115b7578373ffffffffffffffffffffffffffffffffffffffff1685828154811061155e57fe5b9060005260206000200160009054906101000a900473ffffffffffffffffffffffffffffffffffffffff1673ffffffffffffffffffffffffffffffffffffffff1614156115aa57600191505b808060010191505061152f565b508091505092915050565b60008060038054905014156115da5760009050611600565b60006003805490509050600060028080549050816115f457fe5b04905080821015925050505b90565b600080828401905083811015611681576040517f08c379a000000000000000000000000000000000000000000000000000000000815260040180806020018281038252601b8152602001807f536166654d6174683a206164646974696f6e206f766572666c6f77000000000081525060200191505060405180910390fd5b8091505092915050565b50805460008255906000526020600020908101906116a991906116ac565b50565b6116ce91905b808211156116ca5760008160009055506001016116b2565b5090565b9056fe49662074686973206973206e6f7420302c2074686572652077617320616e206572726f7245786368616e6765205261746520287363616c65642075702062792031653138293a20a26469706673582212206dfa6bc0f2a7f7ef763584017d00cd9beb7cc4795ba89dae1bb92d30dbb6aa0f64736f6c63430006000033",
  "source": "pragma solidity >=0.4.16 <0.9.0;\n\nimport '@openzeppelin/contracts/math/SafeMath.sol';\nimport './CompoundWallet.sol';\n\ncontract InvestmentFund is CompoundWallet {\n  using SafeMath for uint256;\n\n  address creator;\n  address[] public hasWithdrawn;\n  address[] public investors;\n  address[] public voters;\n  uint256 public currentBalance;\n  uint256 public profit;\n  uint256 public votes;\n  string public title;\n  string public desc;\n  bool public inCycle;\n\n  mapping(address => uint256) public investments;\n\n  event FundingReceived(address investor, uint amount, uint currentTotal);\n\n  constructor(string memory _title, string memory _desc) public payable {\n    creator = msg.sender;\n    title = _title;\n    desc = _desc;\n    currentBalance = 0;\n    profit = 0;\n  }\n\n  modifier participatedAndVoted() {\n    require(hasParticipated(investors, msg.sender), 'Unauthorized');\n    require(hasVotes(), 'Not enough votes');\n    _;\n  }\n\n  function contribute() external payable {\n    investments[msg.sender] = investments[msg.sender].add(msg.value);\n    currentBalance = currentBalance.add(msg.value);\n    bool hasInvested = hasParticipated(investors, msg.sender);\n    if (!hasInvested) {\n      investors.push(msg.sender);\n    }\n\n    emit FundingReceived(msg.sender, msg.value, currentBalance);\n  }\n\n  function vote() external {\n    bool hasVoted = hasParticipated(voters, msg.sender);\n    if (!hasVoted) {\n      voters.push(msg.sender);\n    }\n  }\n\n  function hasVotes() internal view returns (bool) {\n    if (voters.length == 0) return false;\n    uint256 voterCount = uint(voters.length);\n    uint256 sufficientVotes = uint(investors.length) / 2;\n    return voterCount >= sufficientVotes;\n  }\n\n  function getVoters() external view returns (address[] memory) {\n    return voters;\n  }\n\n  function getHasWithdrawn() external view returns (address[] memory) {\n    return hasWithdrawn;\n  }\n\n  function hasParticipated(\n    address[] storage _addressList,\n    address _investor\n  ) internal view returns (bool) {\n    bool participated = false;\n    for (uint i = 0; i < _addressList.length; i++) {\n      if (_addressList[i] == _investor) {\n        participated = true;\n      }\n    }\n    return participated;\n  }\n\n  function invest(address payable _cEtherContract, uint256 _amount) participatedAndVoted public returns (bool) {\n    bool isInvested = supplyEthToCompound(_cEtherContract, _amount);\n    if (isInvested) {\n      inCycle = true;\n      delete voters;\n    }\n    return isInvested;\n  }\n// finish validations and modifiers and withdrawal math. check actual profit values. Read compound docs on calc profits\n  function withdrawInvestment(\n    address payable _cEtherContract,\n    uint256 _amount\n  ) participatedAndVoted public payable {\n    bool isProfit = redeemCEth(_cEtherContract, _amount);\n    if (isProfit) {\n      profit = _amount;\n      delete voters;\n    }\n  }\n\n  function withdrawFunds() public payable returns (uint256) {\n    require(profit > 0, 'Withdraw profit first');\n    require(!hasParticipated(hasWithdrawn, msg.sender), 'Already withdrawn');\n    require(hasParticipated(investors, msg.sender), 'Unauthorized');\n    uint256 initialInvestment = investments[msg.sender];\n    uint256 percentageOfProfit = initialInvestment / currentBalance;\n    uint256 amountToSend = profit * percentageOfProfit;\n    address payable receiver = msg.sender;\n    receiver.transfer(amountToSend);\n    hasWithdrawn.push(msg.sender);\n    if (hasWithdrawn.length == investors.length) {\n      currentBalance = 0;\n    }\n    return amountToSend;\n  }\n}\n",
  "sourcePath": "/Users/osamamiro/defi/sern/sern/contracts/InvestmentFund.sol",
  "compiler": {
    "name": "solc",
    "version": "0.6.0+commit.26b70077.Emscripten.clang"
  },
  "schemaVersion": "3.2.0",
  "updatedAt": "2021-02-24T07:03:10.739Z",
  "networkType": "ethereum",
  "devdoc": {
    "methods": {}
  },
  "userdoc": {
    "methods": {}
  }
}