{
  "contractName": "Portfolio",
  "abi": [
    {
      "anonymous": false,
      "inputs": [
        {
          "indexed": false,
          "internalType": "address",
          "name": "contractAddress",
          "type": "address"
        },
        {
          "indexed": false,
          "internalType": "address",
          "name": "fundStarter",
          "type": "address"
        },
        {
          "indexed": false,
          "internalType": "string",
          "name": "fundTitle",
          "type": "string"
        },
        {
          "indexed": false,
          "internalType": "string",
          "name": "fundDesc",
          "type": "string"
        }
      ],
      "name": "InvestmentFundStarted",
      "type": "event"
    },
    {
      "inputs": [
        {
          "internalType": "string",
          "name": "_fundTitle",
          "type": "string"
        },
        {
          "internalType": "string",
          "name": "_fundDesc",
          "type": "string"
        }
      ],
      "name": "startFund",
      "outputs": [],
      "stateMutability": "nonpayable",
      "type": "function"
    },
    {
      "inputs": [],
      "name": "returnAllProjects",
      "outputs": [
        {
          "internalType": "contract InvestmentFund[]",
          "name": "",
          "type": "address[]"
        }
      ],
      "stateMutability": "view",
      "type": "function",
      "constant": true
    }
  ],
  "bytecode": "0x608060405234801561001057600080fd5b50611fec806100206000396000f3fe608060405234801561001057600080fd5b50600436106100365760003560e01c806345ef3e381461003b57806385b6e28e1461018d575b600080fd5b61018b6004803603604081101561005157600080fd5b810190808035906020019064010000000081111561006e57600080fd5b82018360208201111561008057600080fd5b803590602001918460018302840111640100000000831117156100a257600080fd5b91908080601f016020809104026020016040519081016040528093929190818152602001838380828437600081840152601f19601f8201169050808301925050505050505091929192908035906020019064010000000081111561010557600080fd5b82018360208201111561011757600080fd5b8035906020019184600183028401116401000000008311171561013957600080fd5b91908080601f016020809104026020016040519081016040528093929190818152602001838380828437600081840152601f19601f8201169050808301925050505050505091929192905050506101ec565b005b6101956104cf565b6040518080602001828103825283818151815260200191508051906020019060200280838360005b838110156101d85780820151818401526020810190506101bd565b505050509050019250505060405180910390f35b600082826040516101fc9061055d565b808060200180602001838103835285818151815260200191508051906020019080838360005b8381101561023d578082015181840152602081019050610222565b50505050905090810190601f16801561026a5780820380516001836020036101000a031916815260200191505b50838103825284818151815260200191508051906020019080838360005b838110156102a3578082015181840152602081019050610288565b50505050905090810190601f1680156102d05780820380516001836020036101000a031916815260200191505b50945050505050604051809103906000f0801580156102f3573d6000803e3d6000fd5b5090506000819080600181540180825580915050600190039060005260206000200160009091909190916101000a81548173ffffffffffffffffffffffffffffffffffffffff021916908373ffffffffffffffffffffffffffffffffffffffff1602179055507fafbdc36571a7315dd72aefc875bf403b387df1edda3b5d4c0adab869c6bf7be581338585604051808573ffffffffffffffffffffffffffffffffffffffff1673ffffffffffffffffffffffffffffffffffffffff1681526020018473ffffffffffffffffffffffffffffffffffffffff1673ffffffffffffffffffffffffffffffffffffffff1681526020018060200180602001838103835285818151815260200191508051906020019080838360005b8381101561042657808201518184015260208101905061040b565b50505050905090810190601f1680156104535780820380516001836020036101000a031916815260200191505b50838103825284818151815260200191508051906020019080838360005b8381101561048c578082015181840152602081019050610471565b50505050905090810190601f1680156104b95780820380516001836020036101000a031916815260200191505b50965050505050505060405180910390a1505050565b6060600080548060200260200160405190810160405280929190818152602001828054801561055357602002820191906000526020600020905b8160009054906101000a900473ffffffffffffffffffffffffffffffffffffffff1673ffffffffffffffffffffffffffffffffffffffff1681526020019060010190808311610509575b5050505050905090565b611a4c8061056b8339019056fe60806040523480156200001157600080fd5b5060405162001a4c38038062001a4c833981810160405260408110156200003757600080fd5b81019080805160405193929190846401000000008211156200005857600080fd5b838201915060208201858111156200006f57600080fd5b82518660018202830111640100000000821117156200008d57600080fd5b8083526020830192505050908051906020019080838360005b83811015620000c3578082015181840152602081019050620000a6565b50505050905090810190601f168015620000f15780820380516001836020036101000a031916815260200191505b50604052602001805160405193929190846401000000008211156200011557600080fd5b838201915060208201858111156200012c57600080fd5b82518660018202830111640100000000821117156200014a57600080fd5b8083526020830192505050908051906020019080838360005b838110156200018057808201518184015260208101905062000163565b50505050905090810190601f168015620001ae5780820380516001836020036101000a031916815260200191505b50604052505050336000806101000a81548173ffffffffffffffffffffffffffffffffffffffff021916908373ffffffffffffffffffffffffffffffffffffffff16021790555081600790805190602001906200020d9291906200023f565b508060089080519060200190620002269291906200023f565b50600060048190555060006005819055505050620002ee565b828054600181600116156101000203166002900490600052602060002090601f016020900481019282601f106200028257805160ff1916838001178555620002b3565b82800160010185558215620002b3579182015b82811115620002b257825182559160200191906001019062000295565b5b509050620002c29190620002c6565b5090565b620002eb91905b80821115620002e7576000816000905550600101620002cd565b5090565b90565b61174e80620002fe6000396000f3fe6080604052600436106101145760003560e01c806366d16cc3116100a0578063d7bb99ba11610064578063d7bb99ba1461061e578063da58c7d914610628578063e168c3ec146106a3578063e6681900146106ce578063eefc0afd1461074157610114565b806366d16cc31461048457806396b98862146104af578063b9b8c24614610514578063cdd7225314610587578063ce845d1d146105f357610114565b80634a79d50c116100e75780634a79d50c1461026657806355f150f1146102f657806356563be31461038657806361b91e0b14610401578063632a9a521461046d57610114565b8063105c551d1461011957806324600fc31461016757806325c8764e146101855780633feb5f2b146101eb575b600080fd5b6101656004803603604081101561012f57600080fd5b81019080803573ffffffffffffffffffffffffffffffffffffffff16906020019092919080359060200190929190505050610770565b005b61016f610896565b6040518082815260200191505060405180910390f35b6101d16004803603604081101561019b57600080fd5b81019080803573ffffffffffffffffffffffffffffffffffffffff16906020019092919080359060200190929190505050610b3b565b604051808215151515815260200191505060405180910390f35b3480156101f757600080fd5b506102246004803603602081101561020e57600080fd5b8101908080359060200190929190505050610d86565b604051808273ffffffffffffffffffffffffffffffffffffffff1673ffffffffffffffffffffffffffffffffffffffff16815260200191505060405180910390f35b34801561027257600080fd5b5061027b610dc2565b6040518080602001828103825283818151815260200191508051906020019080838360005b838110156102bb5780820151818401526020810190506102a0565b50505050905090810190601f1680156102e85780820380516001836020036101000a031916815260200191505b509250505060405180910390f35b34801561030257600080fd5b5061030b610e60565b6040518080602001828103825283818151815260200191508051906020019080838360005b8381101561034b578082015181840152602081019050610330565b50505050905090810190601f1680156103785780820380516001836020036101000a031916815260200191505b509250505060405180910390f35b34801561039257600080fd5b506103bf600480360360208110156103a957600080fd5b8101908080359060200190929190505050610efe565b604051808273ffffffffffffffffffffffffffffffffffffffff1673ffffffffffffffffffffffffffffffffffffffff16815260200191505060405180910390f35b34801561040d57600080fd5b50610416610f3a565b6040518080602001828103825283818151815260200191508051906020019060200280838360005b8381101561045957808201518184015260208101905061043e565b505050509050019250505060405180910390f35b34801561047957600080fd5b50610482610fc8565b005b34801561049057600080fd5b50610499611043565b6040518082815260200191505060405180910390f35b3480156104bb57600080fd5b506104fe600480360360208110156104d257600080fd5b81019080803573ffffffffffffffffffffffffffffffffffffffff169060200190929190505050611049565b6040518082815260200191505060405180910390f35b34801561052057600080fd5b5061056d6004803603604081101561053757600080fd5b81019080803573ffffffffffffffffffffffffffffffffffffffff16906020019092919080359060200190929190505050611061565b604051808215151515815260200191505060405180910390f35b34801561059357600080fd5b5061059c6111a2565b6040518080602001828103825283818151815260200191508051906020019060200280838360005b838110156105df5780820151818401526020810190506105c4565b505050509050019250505060405180910390f35b3480156105ff57600080fd5b50610608611230565b6040518082815260200191505060405180910390f35b610626611236565b005b34801561063457600080fd5b506106616004803603602081101561064b57600080fd5b81019080803590602001909291905050506113d6565b604051808273ffffffffffffffffffffffffffffffffffffffff1673ffffffffffffffffffffffffffffffffffffffff16815260200191505060405180910390f35b3480156106af57600080fd5b506106b8611412565b6040518082815260200191505060405180910390f35b3480156106da57600080fd5b50610727600480360360408110156106f157600080fd5b81019080803573ffffffffffffffffffffffffffffffffffffffff16906020019092919080359060200190929190505050611418565b604051808215151515815260200191505060405180910390f35b34801561074d57600080fd5b5061075661150f565b604051808215151515815260200191505060405180910390f35b61077b600233611522565b6107ed576040517f08c379a000000000000000000000000000000000000000000000000000000000815260040180806020018281038252600c8152602001807f556e617574686f72697a6564000000000000000000000000000000000000000081525060200191505060405180910390fd5b6107f56115c2565b610867576040517f08c379a00000000000000000000000000000000000000000000000000000000081526004018080602001828103825260108152602001807f4e6f7420656e6f75676820766f7465730000000000000000000000000000000081525060200191505060405180910390fd5b60006108738383611418565b90508015610891578160058190555060036000610890919061168b565b5b505050565b6000806005541161090f576040517f08c379a00000000000000000000000000000000000000000000000000000000081526004018080602001828103825260158152602001807f57697468647261772070726f666974206669727374000000000000000000000081525060200191505060405180910390fd5b61091a600133611522565b1561098d576040517f08c379a00000000000000000000000000000000000000000000000000000000081526004018080602001828103825260118152602001807f416c72656164792077697468647261776e00000000000000000000000000000081525060200191505060405180910390fd5b610998600233611522565b610a0a576040517f08c379a000000000000000000000000000000000000000000000000000000000815260040180806020018281038252600c8152602001807f556e617574686f72697a6564000000000000000000000000000000000000000081525060200191505060405180910390fd5b6000600a60003373ffffffffffffffffffffffffffffffffffffffff1673ffffffffffffffffffffffffffffffffffffffff16815260200190815260200160002054905060006004548281610a5b57fe5b04905060008160055402905060003390508073ffffffffffffffffffffffffffffffffffffffff166108fc839081150290604051600060405180830381858888f19350505050158015610ab2573d6000803e3d6000fd5b506001339080600181540180825580915050600190039060005260206000200160009091909190916101000a81548173ffffffffffffffffffffffffffffffffffffffff021916908373ffffffffffffffffffffffffffffffffffffffff1602179055506002805490506001805490501415610b315760006004819055505b8194505050505090565b60008083905060008173ffffffffffffffffffffffffffffffffffffffff1663bd6d894d6040518163ffffffff1660e01b8152600401602060405180830381600087803b158015610b8b57600080fd5b505af1158015610b9f573d6000803e3d6000fd5b505050506040513d6020811015610bb557600080fd5b810190808051906020019092919050505090507fd0c55d35e13dcf688185029be63a7caa6fa1f0a0d7e3c4901b7405a2b9fac563816040518080602001838152602001828103825260238152602001806116f6602391396040019250505060405180910390a160008273ffffffffffffffffffffffffffffffffffffffff1663ae9d70b06040518163ffffffff1660e01b8152600401602060405180830381600087803b158015610c6557600080fd5b505af1158015610c79573d6000803e3d6000fd5b505050506040513d6020811015610c8f57600080fd5b810190808051906020019092919050505090507fd0c55d35e13dcf688185029be63a7caa6fa1f0a0d7e3c4901b7405a2b9fac563816040518080602001838152602001828103825260208152602001807f537570706c7920526174653a20287363616c65642075702062792031653138298152506020019250505060405180910390a18273ffffffffffffffffffffffffffffffffffffffff16631249c58b866203d090906040518363ffffffff1660e01b81526004016000604051808303818589803b158015610d5f57600080fd5b5088f1158015610d73573d6000803e3d6000fd5b5050505050506001935050505092915050565b60028181548110610d9357fe5b906000526020600020016000915054906101000a900473ffffffffffffffffffffffffffffffffffffffff1681565b60078054600181600116156101000203166002900480601f016020809104026020016040519081016040528092919081815260200182805460018160011615610100020316600290048015610e585780601f10610e2d57610100808354040283529160200191610e58565b820191906000526020600020905b815481529060010190602001808311610e3b57829003601f168201915b505050505081565b60088054600181600116156101000203166002900480601f016020809104026020016040519081016040528092919081815260200182805460018160011615610100020316600290048015610ef65780601f10610ecb57610100808354040283529160200191610ef6565b820191906000526020600020905b815481529060010190602001808311610ed957829003601f168201915b505050505081565b60018181548110610f0b57fe5b906000526020600020016000915054906101000a900473ffffffffffffffffffffffffffffffffffffffff1681565b60606001805480602002602001604051908101604052809291908181526020018280548015610fbe57602002820191906000526020600020905b8160009054906101000a900473ffffffffffffffffffffffffffffffffffffffff1673ffffffffffffffffffffffffffffffffffffffff1681526020019060010190808311610f74575b5050505050905090565b6000610fd5600333611522565b905080611040576003339080600181540180825580915050600190039060005260206000200160009091909190916101000a81548173ffffffffffffffffffffffffffffffffffffffff021916908373ffffffffffffffffffffffffffffffffffffffff1602179055505b50565b60055481565b600a6020528060005260406000206000915090505481565b600061106e600233611522565b6110e0576040517f08c379a000000000000000000000000000000000000000000000000000000000815260040180806020018281038252600c8152602001807f556e617574686f72697a6564000000000000000000000000000000000000000081525060200191505060405180910390fd5b6110e86115c2565b61115a576040517f08c379a00000000000000000000000000000000000000000000000000000000081526004018080602001828103825260108152602001807f4e6f7420656e6f75676820766f7465730000000000000000000000000000000081525060200191505060405180910390fd5b60006111668484610b3b565b90508015611198576001600960006101000a81548160ff02191690831515021790555060036000611197919061168b565b5b8091505092915050565b6060600380548060200260200160405190810160405280929190818152602001828054801561122657602002820191906000526020600020905b8160009054906101000a900473ffffffffffffffffffffffffffffffffffffffff1673ffffffffffffffffffffffffffffffffffffffff16815260200190600101908083116111dc575b5050505050905090565b60045481565b61128834600a60003373ffffffffffffffffffffffffffffffffffffffff1673ffffffffffffffffffffffffffffffffffffffff1681526020019081526020016000205461160390919063ffffffff16565b600a60003373ffffffffffffffffffffffffffffffffffffffff1673ffffffffffffffffffffffffffffffffffffffff168152602001908152602001600020819055506112e03460045461160390919063ffffffff16565b60048190555060006112f3600233611522565b90508061135e576002339080600181540180825580915050600190039060005260206000200160009091909190916101000a81548173ffffffffffffffffffffffffffffffffffffffff021916908373ffffffffffffffffffffffffffffffffffffffff1602179055505b7f5cdc4ab8d637538ead6cc1904d4160343656c8c82bd266635cfd31ac008fffe03334600454604051808473ffffffffffffffffffffffffffffffffffffffff1673ffffffffffffffffffffffffffffffffffffffff168152602001838152602001828152602001935050505060405180910390a150565b600381815481106113e357fe5b906000526020600020016000915054906101000a900473ffffffffffffffffffffffffffffffffffffffff1681565b60065481565b60008083905060008173ffffffffffffffffffffffffffffffffffffffff1663db006a75856040518263ffffffff1660e01b815260040180828152602001915050602060405180830381600087803b15801561147357600080fd5b505af1158015611487573d6000803e3d6000fd5b505050506040513d602081101561149d57600080fd5b810190808051906020019092919050505090507fd0c55d35e13dcf688185029be63a7caa6fa1f0a0d7e3c4901b7405a2b9fac563816040518080602001838152602001828103825260248152602001806116d2602491396040019250505060405180910390a160019250505092915050565b600960009054906101000a900460ff1681565b6000806000905060008090505b84805490508110156115b7578373ffffffffffffffffffffffffffffffffffffffff1685828154811061155e57fe5b9060005260206000200160009054906101000a900473ffffffffffffffffffffffffffffffffffffffff1673ffffffffffffffffffffffffffffffffffffffff1614156115aa57600191505b808060010191505061152f565b508091505092915050565b60008060038054905014156115da5760009050611600565b60006003805490509050600060028080549050816115f457fe5b04905080821015925050505b90565b600080828401905083811015611681576040517f08c379a000000000000000000000000000000000000000000000000000000000815260040180806020018281038252601b8152602001807f536166654d6174683a206164646974696f6e206f766572666c6f77000000000081525060200191505060405180910390fd5b8091505092915050565b50805460008255906000526020600020908101906116a991906116ac565b50565b6116ce91905b808211156116ca5760008160009055506001016116b2565b5090565b9056fe49662074686973206973206e6f7420302c2074686572652077617320616e206572726f7245786368616e6765205261746520287363616c65642075702062792031653138293a20a26469706673582212208b8c1e610ba15903d5613eb76a6b4b5707a4e511130993307f1d0d8fa19ea75164736f6c63430006000033a2646970667358221220172423116311c23c956e5d014200380679bc361237881065b36f5d0b9d9cac4f64736f6c63430006000033",
  "source": "pragma solidity >=0.4.16 <0.9.0;\n\nimport '@openzeppelin/contracts/math/SafeMath.sol';\nimport './InvestmentFund.sol';\n\ncontract Portfolio {\n  using SafeMath for uint256;\n\n  InvestmentFund[] private investmentFunds;\n\n  event InvestmentFundStarted(\n    address contractAddress,\n    address fundStarter,\n    string fundTitle,\n    string fundDesc\n  );\n\n  function startFund(string memory _fundTitle, string memory _fundDesc) public {\n    InvestmentFund newFund = new InvestmentFund(_fundTitle, _fundDesc);\n    investmentFunds.push(newFund);\n    emit InvestmentFundStarted(\n      address(newFund),\n      msg.sender,\n      _fundTitle,\n      _fundDesc\n    );\n  }\n\n  function returnAllProjects() public view returns (InvestmentFund[] memory) {\n    return investmentFunds;\n  }\n\n}\n",
  "sourcePath": "/Users/osamamiro/defi/sern/sern/contracts/Portfolio.sol",
  "compiler": {
    "name": "solc",
    "version": "0.6.0+commit.26b70077.Emscripten.clang"
  },
  "schemaVersion": "3.2.0",
  "updatedAt": "2021-02-24T04:54:59.209Z",
  "networkType": "ethereum",
  "devdoc": {
    "methods": {}
  },
  "userdoc": {
    "methods": {}
  }
}