{
  "contractName": "Wallet",
  "abi": [
    {
      "inputs": [],
      "stateMutability": "nonpayable",
      "type": "constructor"
    },
    {
      "inputs": [
        {
          "internalType": "address",
          "name": "_address",
          "type": "address"
        }
      ],
      "name": "balance",
      "outputs": [
        {
          "internalType": "uint256",
          "name": "",
          "type": "uint256"
        }
      ],
      "stateMutability": "view",
      "type": "function",
      "constant": true
    }
  ],
  "bytecode": "0x6080604052736b175474e89094c44da98b954eedeac495271d0f600260006101000a81548173ffffffffffffffffffffffffffffffffffffffff021916908373ffffffffffffffffffffffffffffffffffffffff1602179055507316de59092dae5ccf4a1e6439d611fd0653f0bd01600360006101000a81548173ffffffffffffffffffffffffffffffffffffffff021916908373ffffffffffffffffffffffffffffffffffffffff1602179055503480156100ba57600080fd5b50336000806101000a81548173ffffffffffffffffffffffffffffffffffffffff021916908373ffffffffffffffffffffffffffffffffffffffff1602179055506102a58061010a6000396000f3fe608060405234801561001057600080fd5b5060043610610048576000357c010000000000000000000000000000000000000000000000000000000090048063e3d670d71461004d575b600080fd5b61008f6004803603602081101561006357600080fd5b81019080803573ffffffffffffffffffffffffffffffffffffffff1690602001909291905050506100a5565b6040518082815260200191505060405180910390f35b600080600360009054906101000a900473ffffffffffffffffffffffffffffffffffffffff1673ffffffffffffffffffffffffffffffffffffffff166377c7b8fc6040518163ffffffff167c010000000000000000000000000000000000000000000000000000000002815260040160206040518083038186803b15801561012c57600080fd5b505afa158015610140573d6000803e3d6000fd5b505050506040513d602081101561015657600080fd5b810190808051906020019092919050505090506000600360009054906101000a900473ffffffffffffffffffffffffffffffffffffffff1673ffffffffffffffffffffffffffffffffffffffff166370a08231856040518263ffffffff167c0100000000000000000000000000000000000000000000000000000000028152600401808273ffffffffffffffffffffffffffffffffffffffff1673ffffffffffffffffffffffffffffffffffffffff16815260200191505060206040518083038186803b15801561022657600080fd5b505afa15801561023a573d6000803e3d6000fd5b505050506040513d602081101561025057600080fd5b810190808051906020019092919050505090508181029250505091905056fea26469706673582212205ad4b78ba531a0aabd73674b29279b2a0fb41781bd42e39c31d388d628ee7d8464736f6c63430006000033",
  "source": "pragma solidity ^0.6.0;\n\nimport '@openzeppelin/contracts/token/ERC20/IERC20.sol';\n\ninterface IYDAI {\n  function deposit(uint _amount) external;\n  function withdraw(uint _shares) external;\n  function balanceOf(address account) external view returns (uint);\n  function getPricePerFullShare() external view returns (uint);\n}\n\ncontract Wallet {\n  address admin;\n  uint256 transferAmount;\n\n  IERC20 dai = IERC20(0x6B175474E89094C44Da98b954EedeAC495271d0F);\n  IYDAI yDai = IYDAI(0x16de59092dAE5CcF4A1E6439D611fd0653f0Bd01);\n\n  constructor() public {\n    admin = msg.sender;\n  }\n\n  function save(address _address, uint amount) internal {\n    dai.transferFrom(_address, address(this), amount);\n    _save(amount);\n  }\n\n  function spend (uint amount, address recipient) internal {\n    require(msg.sender == admin, 'unauthorized');\n    uint balanceShares = yDai.balanceOf(address(this));\n    yDai.withdraw(balanceShares);\n    dai.transfer(recipient, amount);\n    uint balanceDai = dai.balanceOf(address(this));\n    if (balanceDai > 0) {\n      _save(balanceDai);\n    }\n  }\n\n  function _save(uint amount) internal {\n    dai.approve(address(yDai), amount);\n    yDai.deposit(amount);\n  }\n\n  function balance(address _address) external view returns(uint) {\n    uint price = yDai.getPricePerFullShare();\n    uint balanceShares = yDai.balanceOf(_address);\n    return balanceShares * price;\n  }\n\n}\n",
  "sourcePath": "/Users/osamamiro/defi/sern/sern/src/contracts/Wallet.sol",
  "compiler": {
    "name": "solc",
    "version": "0.6.0+commit.26b70077.Emscripten.clang"
  },
  "schemaVersion": "3.2.0",
  "updatedAt": "2021-01-26T03:11:14.453Z",
  "networkType": "ethereum",
  "devdoc": {
    "methods": {}
  },
  "userdoc": {
    "methods": {}
  }
}